{
  "_format": "hh-sol-artifact-1",
  "contractName": "MockUSDC",
  "sourceName": "contracts/MockUSDC.sol",
  "abi": [
    {
      "inputs": [
        {
          "internalType": "bool",
          "name": "returnValue",
          "type": "bool"
        }
      ],
      "stateMutability": "nonpayable",
      "type": "constructor"
    },
    {
      "inputs": [
        {
          "internalType": "address",
          "name": "",
          "type": "address"
        },
        {
          "internalType": "address",
          "name": "",
          "type": "address"
        }
      ],
      "name": "allowance",
      "outputs": [
        {
          "internalType": "uint256",
          "name": "",
          "type": "uint256"
        }
      ],
      "stateMutability": "view",
      "type": "function"
    },
    {
      "inputs": [
        {
          "internalType": "address",
          "name": "",
          "type": "address"
        },
        {
          "internalType": "address",
          "name": "",
          "type": "address"
        },
        {
          "internalType": "uint256",
          "name": "",
          "type": "uint256"
        },
        {
          "internalType": "uint256",
          "name": "",
          "type": "uint256"
        },
        {
          "internalType": "uint8",
          "name": "",
          "type": "uint8"
        },
        {
          "internalType": "bytes32",
          "name": "",
          "type": "bytes32"
        },
        {
          "internalType": "bytes32",
          "name": "",
          "type": "bytes32"
        }
      ],
      "name": "permit",
      "outputs": [],
      "stateMutability": "pure",
      "type": "function"
    },
    {
      "inputs": [
        {
          "internalType": "uint256",
          "name": "amount",
          "type": "uint256"
        }
      ],
      "name": "setAllowance",
      "outputs": [],
      "stateMutability": "nonpayable",
      "type": "function"
    },
    {
      "inputs": [
        {
          "internalType": "bool",
          "name": "returnValue",
          "type": "bool"
        }
      ],
      "name": "setReturnValue",
      "outputs": [],
      "stateMutability": "nonpayable",
      "type": "function"
    },
    {
      "inputs": [
        {
          "internalType": "address",
          "name": "",
          "type": "address"
        },
        {
          "internalType": "address",
          "name": "",
          "type": "address"
        },
        {
          "internalType": "uint256",
          "name": "",
          "type": "uint256"
        }
      ],
      "name": "transferFrom",
      "outputs": [
        {
          "internalType": "bool",
          "name": "",
          "type": "bool"
        }
      ],
      "stateMutability": "nonpayable",
      "type": "function"
    }
  ],
  "bytecode": "0x6080604052348015600f57600080fd5b506040516102f13803806102f1833981016040819052602c916047565b6000805460ff1916911515919091179055600019600155606e565b600060208284031215605857600080fd5b81518015158114606757600080fd5b9392505050565b6102748061007d6000396000f3fe608060405234801561001057600080fd5b50600436106100575760003560e01c806323b872dd1461005c5780633ba93f261461008c578063d2c64176146100a1578063d505accf146100c2578063dd62ed3e146100d9575b600080fd5b61007761006a366004610119565b60005460ff169392505050565b60405190151581526020015b60405180910390f35b61009f61009a366004610156565b600155565b005b61009f6100af36600461016f565b6000805460ff1916911515919091179055565b61009f6100d0366004610198565b50505050505050565b6100ef6100e736600461020b565b505060015490565b604051908152602001610083565b80356001600160a01b038116811461011457600080fd5b919050565b60008060006060848603121561012e57600080fd5b610137846100fd565b9250610145602085016100fd565b929592945050506040919091013590565b60006020828403121561016857600080fd5b5035919050565b60006020828403121561018157600080fd5b8135801515811461019157600080fd5b9392505050565b600080600080600080600060e0888a0312156101b357600080fd5b6101bc886100fd565b96506101ca602089016100fd565b95506040880135945060608801359350608088013560ff811681146101ee57600080fd5b9699959850939692959460a0840135945060c09093013592915050565b6000806040838503121561021e57600080fd5b610227836100fd565b9150610235602084016100fd565b9050925092905056fea2646970667358221220e6f0ca509d1d1c33d5563fccc6039e58bb9fd506a4848662d8284a234174e64764736f6c634300081a0033",
  "linkReferences": {},
  "deployedLinkReferences": {}
}