{
  "_format": "hh-sol-artifact-1",
  "contractName": "BatchDistributor",
  "sourceName": "contracts/BatchDistributor.sol",
  "abi": [
    {
      "inputs": [],
      "stateMutability": "nonpayable",
      "type": "constructor"
    },
    {
      "anonymous": false,
      "inputs": [
        {
          "indexed": true,
          "internalType": "address",
          "name": "funder",
          "type": "address"
        },
        {
          "indexed": true,
          "internalType": "uint256",
          "name": "batchId",
          "type": "uint256"
        },
        {
          "indexed": false,
          "internalType": "bool",
          "name": "paused",
          "type": "bool"
        }
      ],
      "name": "BatchPauseSet",
      "type": "event"
    },
    {
      "anonymous": false,
      "inputs": [
        {
          "indexed": true,
          "internalType": "address",
          "name": "funder",
          "type": "address"
        },
        {
          "indexed": true,
          "internalType": "uint256",
          "name": "batchId",
          "type": "uint256"
        },
        {
          "indexed": false,
          "internalType": "bytes32",
          "name": "merkleRoot",
          "type": "bytes32"
        }
      ],
      "name": "BatchRootSet",
      "type": "event"
    },
    {
      "anonymous": false,
      "inputs": [
        {
          "indexed": true,
          "internalType": "uint256",
          "name": "batchId",
          "type": "uint256"
        },
        {
          "indexed": true,
          "internalType": "uint256",
          "name": "txId",
          "type": "uint256"
        },
        {
          "indexed": true,
          "internalType": "address",
          "name": "recipient",
          "type": "address"
        },
        {
          "indexed": false,
          "internalType": "address",
          "name": "funder",
          "type": "address"
        },
        {
          "indexed": false,
          "internalType": "uint256",
          "name": "amount",
          "type": "uint256"
        }
      ],
      "name": "TransactionExecuted",
      "type": "event"
    },
    {
      "inputs": [],
      "name": "DOMAIN_SEPARATOR",
      "outputs": [
        {
          "internalType": "bytes32",
          "name": "",
          "type": "bytes32"
        }
      ],
      "stateMutability": "view",
      "type": "function"
    },
    {
      "inputs": [],
      "name": "SET_BATCH_PAUSE_TYPEHASH",
      "outputs": [
        {
          "internalType": "bytes32",
          "name": "",
          "type": "bytes32"
        }
      ],
      "stateMutability": "view",
      "type": "function"
    },
    {
      "inputs": [],
      "name": "SET_BATCH_ROOT_TYPEHASH",
      "outputs": [
        {
          "internalType": "bytes32",
          "name": "",
          "type": "bytes32"
        }
      ],
      "stateMutability": "view",
      "type": "function"
    },
    {
      "inputs": [
        {
          "internalType": "address",
          "name": "",
          "type": "address"
        },
        {
          "internalType": "uint256",
          "name": "",
          "type": "uint256"
        }
      ],
      "name": "batchPaused",
      "outputs": [
        {
          "internalType": "bool",
          "name": "",
          "type": "bool"
        }
      ],
      "stateMutability": "view",
      "type": "function"
    },
    {
      "inputs": [
        {
          "internalType": "address",
          "name": "",
          "type": "address"
        },
        {
          "internalType": "uint256",
          "name": "",
          "type": "uint256"
        }
      ],
      "name": "batchRoots",
      "outputs": [
        {
          "internalType": "bytes32",
          "name": "",
          "type": "bytes32"
        }
      ],
      "stateMutability": "view",
      "type": "function"
    },
    {
      "inputs": [
        {
          "internalType": "address[]",
          "name": "recipients",
          "type": "address[]"
        },
        {
          "internalType": "uint256",
          "name": "amount",
          "type": "uint256"
        }
      ],
      "name": "distributeMatic",
      "outputs": [],
      "stateMutability": "payable",
      "type": "function"
    },
    {
      "inputs": [
        {
          "internalType": "uint256",
          "name": "batchId",
          "type": "uint256"
        },
        {
          "internalType": "uint256",
          "name": "txId",
          "type": "uint256"
        },
        {
          "internalType": "address",
          "name": "funder",
          "type": "address"
        },
        {
          "internalType": "address",
          "name": "recipient",
          "type": "address"
        },
        {
          "internalType": "uint256",
          "name": "amount",
          "type": "uint256"
        },
        {
          "internalType": "bytes32[]",
          "name": "proof",
          "type": "bytes32[]"
        }
      ],
      "name": "executeTransaction",
      "outputs": [],
      "stateMutability": "nonpayable",
      "type": "function"
    },
    {
      "inputs": [
        {
          "internalType": "uint256",
          "name": "batchId",
          "type": "uint256"
        },
        {
          "internalType": "uint256",
          "name": "txId",
          "type": "uint256"
        },
        {
          "internalType": "address",
          "name": "funder",
          "type": "address"
        },
        {
          "internalType": "address",
          "name": "recipient",
          "type": "address"
        },
        {
          "internalType": "uint256",
          "name": "amount",
          "type": "uint256"
        },
        {
          "internalType": "bytes32[]",
          "name": "proof",
          "type": "bytes32[]"
        },
        {
          "internalType": "uint256",
          "name": "deadline",
          "type": "uint256"
        },
        {
          "internalType": "uint8",
          "name": "v",
          "type": "uint8"
        },
        {
          "internalType": "bytes32",
          "name": "r",
          "type": "bytes32"
        },
        {
          "internalType": "bytes32",
          "name": "s",
          "type": "bytes32"
        }
      ],
      "name": "executeWithPermit",
      "outputs": [],
      "stateMutability": "nonpayable",
      "type": "function"
    },
    {
      "inputs": [
        {
          "internalType": "address",
          "name": "",
          "type": "address"
        }
      ],
      "name": "nonces",
      "outputs": [
        {
          "internalType": "uint256",
          "name": "",
          "type": "uint256"
        }
      ],
      "stateMutability": "view",
      "type": "function"
    },
    {
      "inputs": [
        {
          "internalType": "bytes32",
          "name": "",
          "type": "bytes32"
        }
      ],
      "name": "processedLeaves",
      "outputs": [
        {
          "internalType": "bool",
          "name": "",
          "type": "bool"
        }
      ],
      "stateMutability": "view",
      "type": "function"
    },
    {
      "inputs": [
        {
          "internalType": "uint256",
          "name": "batchId",
          "type": "uint256"
        },
        {
          "internalType": "bool",
          "name": "paused",
          "type": "bool"
        }
      ],
      "name": "setBatchPause",
      "outputs": [],
      "stateMutability": "nonpayable",
      "type": "function"
    },
    {
      "inputs": [
        {
          "internalType": "address",
          "name": "funder",
          "type": "address"
        },
        {
          "internalType": "uint256",
          "name": "batchId",
          "type": "uint256"
        },
        {
          "internalType": "bool",
          "name": "paused",
          "type": "bool"
        },
        {
          "internalType": "bytes",
          "name": "signature",
          "type": "bytes"
        }
      ],
      "name": "setBatchPauseWithSignature",
      "outputs": [],
      "stateMutability": "nonpayable",
      "type": "function"
    },
    {
      "inputs": [
        {
          "internalType": "uint256",
          "name": "batchId",
          "type": "uint256"
        },
        {
          "internalType": "bytes32",
          "name": "merkleRoot",
          "type": "bytes32"
        }
      ],
      "name": "setBatchRoot",
      "outputs": [],
      "stateMutability": "nonpayable",
      "type": "function"
    },
    {
      "inputs": [
        {
          "internalType": "address",
          "name": "funder",
          "type": "address"
        },
        {
          "internalType": "uint256",
          "name": "batchId",
          "type": "uint256"
        },
        {
          "internalType": "bytes32",
          "name": "merkleRoot",
          "type": "bytes32"
        },
        {
          "internalType": "uint256",
          "name": "totalTransactions",
          "type": "uint256"
        },
        {
          "internalType": "uint256",
          "name": "totalAmount",
          "type": "uint256"
        },
        {
          "internalType": "bytes",
          "name": "signature",
          "type": "bytes"
        }
      ],
      "name": "setBatchRootWithSignature",
      "outputs": [],
      "stateMutability": "nonpayable",
      "type": "function"
    },
    {
      "inputs": [],
      "name": "usdcPermit",
      "outputs": [
        {
          "internalType": "contract IERC20Permit",
          "name": "",
          "type": "address"
        }
      ],
      "stateMutability": "view",
      "type": "function"
    },
    {
      "inputs": [],
      "name": "usdcToken",
      "outputs": [
        {
          "internalType": "contract IERC20",
          "name": "",
          "type": "address"
        }
      ],
      "stateMutability": "view",
      "type": "function"
    },
    {
      "inputs": [
        {
          "internalType": "bytes32[]",
          "name": "proof",
          "type": "bytes32[]"
        },
        {
          "internalType": "bytes32",
          "name": "root",
          "type": "bytes32"
        },
        {
          "internalType": "bytes32",
          "name": "leaf",
          "type": "bytes32"
        }
      ],
      "name": "validateMerkleProof",
      "outputs": [
        {
          "internalType": "bool",
          "name": "",
          "type": "bool"
        }
      ],
      "stateMutability": "pure",
      "type": "function"
    },
    {
      "inputs": [
        {
          "internalType": "uint256",
          "name": "batchId",
          "type": "uint256"
        },
        {
          "internalType": "uint256",
          "name": "txId",
          "type": "uint256"
        },
        {
          "internalType": "address",
          "name": "funder",
          "type": "address"
        },
        {
          "internalType": "address",
          "name": "recipient",
          "type": "address"
        },
        {
          "internalType": "uint256",
          "name": "amount",
          "type": "uint256"
        },
        {
          "internalType": "bytes32",
          "name": "root",
          "type": "bytes32"
        },
        {
          "internalType": "bytes32[]",
          "name": "proof",
          "type": "bytes32[]"
        }
      ],
      "name": "validateMerkleProofDetails",
      "outputs": [
        {
          "internalType": "bool",
          "name": "",
          "type": "bool"
        }
      ],
      "stateMutability": "view",
      "type": "function"
    }
  ],
  "bytecode": "0x60e060405234801561001057600080fd5b50733c499c542cef5e3811e1192ce70d8cc03d5c335960a081815260c0918252604080518082018252601081526f2130ba31b42234b9ba3934b13aba37b960811b6020918201528151808301835260018152603160f81b9082015281517f8b73c3c69bb8fe3d512ecc4cf759cc79239f7b179b0ffacaa9a75d522b39400f818301527f954ce1ff189d14938cbba334012437239be85dfc2b2871c489e6cb3044256cd9818401527fc89efdaa54c0f20c7adf612882df0950f5a951637e0307cdcb4c672f298b8bc66060820152466080828101919091523082860152835180830386018152918601909352805191012090819052905191519091906117a56101546000396000818161022701526107af015260008181610167015281816106f201526110d001526000818161027d015281816104dd0152610c2801526117a56000f3fe6080604052600436106101095760003560e01c80638756405711610095578063a689f5db11610064578063a689f5db14610387578063bdbc2e25146103a7578063c271ea3a146103dc578063f4d6119d146103ef578063fc9e79431461040f57600080fd5b806387564057146102ec5780639dede6f714610327578063a300d42314610347578063a58e3dc51461036757600080fd5b806320e7c31c116100dc57806320e7c31c146102155780632cca87b7146102495780633644e5151461026b57806361a8f6381461029f5780637ecebe00146102bf57600080fd5b80630f9840fc1461010e57806311eac85514610155578063124e2d25146101a157806316eedada146101e1575b600080fd5b34801561011a57600080fd5b506101427f5771bd79f5afa3530e53c4461ff464d951c3df7920e320a68b51715fce1e282881565b6040519081526020015b60405180910390f35b34801561016157600080fd5b506101897f000000000000000000000000000000000000000000000000000000000000000081565b6040516001600160a01b03909116815260200161014c565b3480156101ad57600080fd5b506101d16101bc3660046111d4565b60036020526000908152604090205460ff1681565b604051901515815260200161014c565b3480156101ed57600080fd5b506101427f68ba438bd16e106e145d602624d5800366bd2aac53c4c52d255138dbf6dd224e81565b34801561022157600080fd5b506101897f000000000000000000000000000000000000000000000000000000000000000081565b34801561025557600080fd5b50610269610264366004611263565b61042f565b005b34801561027757600080fd5b506101427f000000000000000000000000000000000000000000000000000000000000000081565b3480156102ab57600080fd5b506101d16102ba366004611319565b61062d565b3480156102cb57600080fd5b506101426102da3660046113a4565b60026020526000908152604090205481565b3480156102f857600080fd5b506101d16103073660046113c6565b600160209081526000928352604080842090915290825290205460ff1681565b34801561033357600080fd5b506102696103423660046113f0565b6106b3565b34801561035357600080fd5b50610269610362366004611472565b6106cb565b34801561037357600080fd5b50610269610382366004611530565b610822565b34801561039357600080fd5b506101d16103a2366004611560565b610884565b3480156103b357600080fd5b506101426103c23660046113c6565b600060208181529281526040808220909352908152205481565b6102696103ea3660046115b1565b6108cf565b3480156103fb57600080fd5b5061026961040a3660046115fd565b610a2a565b34801561041b57600080fd5b5061026961042a36600461161f565b610b0a565b6001600160a01b038516600090815260026020526040812080547f68ba438bd16e106e145d602624d5800366bd2aac53c4c52d255138dbf6dd224e91889188918891908661047c8361169d565b909155506040805160208101969096526001600160a01b039094169385019390935260608401919091521515608083015260a082015260c00160408051601f1981840301815290829052805160209182012061190160f01b918301919091527f00000000000000000000000000000000000000000000000000000000000000006022830152604282018190529150600090606201604051602081830303815290604052805190602001209050866001600160a01b03166105728286868080601f016020809104026020016040519081016040528093929190818152602001838380828437600092019190915250610d6792505050565b6001600160a01b0316146105be5760405162461bcd60e51b815260206004820152600e60248201526d4669726d6120696e76616c69646160901b60448201526064015b60405180910390fd5b6001600160a01b03871660008181526001602090815260408083208a8452825291829020805460ff191689151590811790915591519182528892917ff04f4ef99ce5ca4abca72513a6ecdfe92983a60785f134d9ca2a1ed6d443a04d910160405180910390a350505050505050565b60008046308b8b8b8b8b60405160200161064d97969594939291906116b6565b6040516020818303038152906040528051906020012090506106a5848480806020026020016040519081016040528093929190818152602001838360200280828437600092019190915250899250859150610e359050565b9a9950505050505050505050565b6106c287878787878787610eda565b50505050505050565b604051636eb1769f60e11b81526001600160a01b038a8116600483015230602483015288917f00000000000000000000000000000000000000000000000000000000000000009091169063dd62ed3e90604401602060405180830381865afa15801561073b573d6000803e3d6000fd5b505050506040513d601f19601f8201168201806040525081019061075f91906116f3565b10156108065760405163d505accf60e01b81526001600160a01b038a81166004830152306024830152604482018990526064820186905260ff8516608483015260a4820184905260c482018390527f0000000000000000000000000000000000000000000000000000000000000000169063d505accf9060e401600060405180830381600087803b1580156107f357600080fd5b505af1925050508015610804575060015b505b6108158b8b8b8b8b8b8b610eda565b5050505050505050505050565b336000818152600160209081526040808320868452825291829020805460ff191685151590811790915591519182528492917ff04f4ef99ce5ca4abca72513a6ecdfe92983a60785f134d9ca2a1ed6d443a04d91015b60405180910390a35050565b60006108c6858580806020026020016040519081016040528093929190818152602001838360200280828437600092019190915250879250869150610e359050565b95945050505050565b6108d9818361170c565b34101561091d5760405162461bcd60e51b815260206004820152601260248201527153616c646f20696e737566696369656e746560701b60448201526064016105b5565b60005b82811015610a2457600084848381811061093c5761093c611723565b905060200201602081019061095191906113a4565b6001600160a01b031614610a1c57600084848381811061097357610973611723565b905060200201602081019061098891906113a4565b6001600160a01b03168360405160006040518083038185875af1925050503d80600081146109d2576040519150601f19603f3d011682016040523d82523d6000602084013e6109d7565b606091505b5050905080610a1a5760405162461bcd60e51b815260206004820152600f60248201526e151c985b9cd9995c8819985a5b1959608a1b60448201526064016105b5565b505b600101610920565b50505050565b80610a675760405162461bcd60e51b815260206004820152600d60248201526c526f6f7420696e76616c69646160981b60448201526064016105b5565b3360009081526020818152604080832085845290915290205415610abe5760405162461bcd60e51b815260206004820152600e60248201526d526f6f742079612065786973746560901b60448201526064016105b5565b3360008181526020818152604080832086845282529182902084905590518381528492917fcb0479d0efd9722d803c965f96602352ea7e0de05f3e5d506d1063ec7a1938989101610878565b6001600160a01b03871660009081526020818152604080832089845290915290205415610b6a5760405162461bcd60e51b815260206004820152600e60248201526d526f6f742079612065786973746560901b60448201526064016105b5565b6001600160a01b038716600090815260026020526040812080547f5771bd79f5afa3530e53c4461ff464d951c3df7920e320a68b51715fce1e2828918a918a918a918a918a919088610bbb8361169d565b909155506040805160208101989098526001600160a01b03909616958701959095526060860193909352608085019190915260a084015260c083015260e08201526101000160408051601f1981840301815290829052805160209182012061190160f01b918301919091527f00000000000000000000000000000000000000000000000000000000000000006022830152604282018190529150600090606201604051602081830303815290604052805190602001209050886001600160a01b0316610cbd8286868080601f016020809104026020016040519081016040528093929190818152602001838380828437600092019190915250610d6792505050565b6001600160a01b031614610d045760405162461bcd60e51b815260206004820152600e60248201526d4669726d6120696e76616c69646160901b60448201526064016105b5565b6001600160a01b0389166000818152602081815260408083208c84528252918290208a905590518981528a92917fcb0479d0efd9722d803c965f96602352ea7e0de05f3e5d506d1063ec7a193898910160405180910390a3505050505050505050565b60008151604114610d7a57506000610e2f565b60208201516040830151606084015160001a601b811015610da357610da0601b82611739565b90505b8060ff16601b14158015610dbb57508060ff16601c14155b15610dcc5760009350505050610e2f565b60408051600081526020810180835288905260ff831691810191909152606081018490526080810183905260019060a0016020604051602081039080840390855afa158015610e1f573d6000803e3d6000fd5b5050506020604051035193505050505b92915050565b600081815b8551811015610ecf576000868281518110610e5757610e57611723565b60200260200101519050808311610e99576040805160208101859052908101829052606001604051602081830303815290604052805190602001209250610ec6565b60408051602081018390529081018490526060016040516020818303038152906040528051906020012092505b50600101610e3a565b509092149392505050565b6001600160a01b03851660009081526001602090815260408083208a845290915290205460ff1615610f3d5760405162461bcd60e51b815260206004820152600c60248201526b4c6f7465207061757361646f60a01b60448201526064016105b5565b600046308989898989604051602001610f5c97969594939291906116b6565b60408051601f1981840301815291815281516020928301206000818152600390935291205490915060ff1615610fc35760405162461bcd60e51b815260206004820152600c60248201526b59612070726f63657361646f60a01b60448201526064016105b5565b611044838380806020026020016040519081016040528093929190818152602001838360200280828437600081840152601f19601f82011690508083019250505050505050600080896001600160a01b03166001600160a01b0316815260200190815260200160002060008b81526020019081526020016000205483610e35565b6110895760405162461bcd60e51b8152602060048201526016602482015275507275656261204d65726b6c6520696e76616c69646160501b60448201526064016105b5565b60008181526003602052604090819020805460ff19166001179055516323b872dd60e01b81526001600160a01b0387811660048301528681166024830152604482018690527f000000000000000000000000000000000000000000000000000000000000000016906323b872dd906064016020604051808303816000875af1158015611119573d6000803e3d6000fd5b505050506040513d601f19601f8201168201806040525081019061113d9190611752565b6111805760405162461bcd60e51b81526020600482015260146024820152731554d110c81d1c985b9cd9995c8819985a5b195960621b60448201526064016105b5565b604080516001600160a01b0388811682526020820187905287169189918b917f32f29e39f133152b385898d9fa511dc4d7db4ff50af731b7c61c859d99419228910160405180910390a45050505050505050565b6000602082840312156111e657600080fd5b5035919050565b80356001600160a01b038116811461120457600080fd5b919050565b801515811461121757600080fd5b50565b60008083601f84011261122c57600080fd5b50813567ffffffffffffffff81111561124457600080fd5b60208301915083602082850101111561125c57600080fd5b9250929050565b60008060008060006080868803121561127b57600080fd5b611284866111ed565b945060208601359350604086013561129b81611209565b9250606086013567ffffffffffffffff8111156112b757600080fd5b6112c38882890161121a565b969995985093965092949392505050565b60008083601f8401126112e657600080fd5b50813567ffffffffffffffff8111156112fe57600080fd5b6020830191508360208260051b850101111561125c57600080fd5b60008060008060008060008060e0898b03121561133557600080fd5b883597506020890135965061134c60408a016111ed565b955061135a60608a016111ed565b94506080890135935060a0890135925060c089013567ffffffffffffffff81111561138457600080fd5b6113908b828c016112d4565b999c989b5096995094979396929594505050565b6000602082840312156113b657600080fd5b6113bf826111ed565b9392505050565b600080604083850312156113d957600080fd5b6113e2836111ed565b946020939093013593505050565b600080600080600080600060c0888a03121561140b57600080fd5b8735965060208801359550611422604089016111ed565b9450611430606089016111ed565b93506080880135925060a088013567ffffffffffffffff81111561145357600080fd5b61145f8a828b016112d4565b989b979a50959850939692959293505050565b60008060008060008060008060008060006101408c8e03121561149457600080fd5b8b359a5060208c013599506114ab60408d016111ed565b98506114b960608d016111ed565b975060808c0135965060a08c013567ffffffffffffffff8111156114dc57600080fd5b6114e88e828f016112d4565b90975095505060c08c0135935060e08c013560ff8116811461150957600080fd5b9a9d999c50979a969995989497509295919493610100830135935061012090920135919050565b6000806040838503121561154357600080fd5b82359150602083013561155581611209565b809150509250929050565b6000806000806060858703121561157657600080fd5b843567ffffffffffffffff81111561158d57600080fd5b611599878288016112d4565b90989097506020870135966040013595509350505050565b6000806000604084860312156115c657600080fd5b833567ffffffffffffffff8111156115dd57600080fd5b6115e9868287016112d4565b909790965060209590950135949350505050565b6000806040838503121561161057600080fd5b50508035926020909101359150565b600080600080600080600060c0888a03121561163a57600080fd5b611643886111ed565b96506020880135955060408801359450606088013593506080880135925060a088013567ffffffffffffffff81111561167b57600080fd5b61145f8a828b0161121a565b634e487b7160e01b600052601160045260246000fd5b6000600182016116af576116af611687565b5060010190565b9687526001600160a01b039586166020880152604087019490945260608601929092528316608085015290911660a083015260c082015260e00190565b60006020828403121561170557600080fd5b5051919050565b8082028115828204841417610e2f57610e2f611687565b634e487b7160e01b600052603260045260246000fd5b60ff8181168382160190811115610e2f57610e2f611687565b60006020828403121561176457600080fd5b81516113bf8161120956fea264697066735822122032dfb56ff19ab9f4b65cd09a4dea4e22e69164acde75005794313de55e493af664736f6c634300081a0033",
  "linkReferences": {},
  "deployedLinkReferences": {}
}