{
  "_format": "hh-sol-artifact-1",
  "contractName": "InstantPayment",
  "sourceName": "contracts/InstantPayment.sol",
  "abi": [
    {
      "inputs": [],
      "stateMutability": "nonpayable",
      "type": "constructor"
    },
    {
      "inputs": [
        {
          "internalType": "address",
          "name": "target",
          "type": "address"
        }
      ],
      "name": "AddressEmptyCode",
      "type": "error"
    },
    {
      "inputs": [
        {
          "internalType": "bytes32",
          "name": "transferId",
          "type": "bytes32"
        }
      ],
      "name": "AlreadyExecuted",
      "type": "error"
    },
    {
      "inputs": [],
      "name": "ECDSAInvalidSignature",
      "type": "error"
    },
    {
      "inputs": [
        {
          "internalType": "uint256",
          "name": "length",
          "type": "uint256"
        }
      ],
      "name": "ECDSAInvalidSignatureLength",
      "type": "error"
    },
    {
      "inputs": [
        {
          "internalType": "bytes32",
          "name": "s",
          "type": "bytes32"
        }
      ],
      "name": "ECDSAInvalidSignatureS",
      "type": "error"
    },
    {
      "inputs": [
        {
          "internalType": "address",
          "name": "implementation",
          "type": "address"
        }
      ],
      "name": "ERC1967InvalidImplementation",
      "type": "error"
    },
    {
      "inputs": [],
      "name": "ERC1967NonPayable",
      "type": "error"
    },
    {
      "inputs": [],
      "name": "EnforcedPause",
      "type": "error"
    },
    {
      "inputs": [
        {
          "internalType": "uint256",
          "name": "requested",
          "type": "uint256"
        },
        {
          "internalType": "uint256",
          "name": "maxAllowed",
          "type": "uint256"
        }
      ],
      "name": "ExceedsMaxPolicyAmount",
      "type": "error"
    },
    {
      "inputs": [
        {
          "internalType": "uint256",
          "name": "requested",
          "type": "uint256"
        },
        {
          "internalType": "uint256",
          "name": "available",
          "type": "uint256"
        }
      ],
      "name": "ExceedsPolicyLimit",
      "type": "error"
    },
    {
      "inputs": [],
      "name": "ExpectedPause",
      "type": "error"
    },
    {
      "inputs": [],
      "name": "FailedCall",
      "type": "error"
    },
    {
      "inputs": [
        {
          "internalType": "uint256",
          "name": "allowance",
          "type": "uint256"
        },
        {
          "internalType": "uint256",
          "name": "needed",
          "type": "uint256"
        }
      ],
      "name": "InsufficientAllowance",
      "type": "error"
    },
    {
      "inputs": [],
      "name": "InvalidAddress",
      "type": "error"
    },
    {
      "inputs": [],
      "name": "InvalidInitialization",
      "type": "error"
    },
    {
      "inputs": [],
      "name": "InvalidSignature",
      "type": "error"
    },
    {
      "inputs": [
        {
          "internalType": "address",
          "name": "caller",
          "type": "address"
        },
        {
          "internalType": "address",
          "name": "coldWallet",
          "type": "address"
        }
      ],
      "name": "NotAuthorizedRelayer",
      "type": "error"
    },
    {
      "inputs": [
        {
          "internalType": "address",
          "name": "caller",
          "type": "address"
        }
      ],
      "name": "NotAuthorizedToReset",
      "type": "error"
    },
    {
      "inputs": [],
      "name": "NotInitializing",
      "type": "error"
    },
    {
      "inputs": [
        {
          "internalType": "address",
          "name": "owner",
          "type": "address"
        }
      ],
      "name": "OwnableInvalidOwner",
      "type": "error"
    },
    {
      "inputs": [
        {
          "internalType": "address",
          "name": "account",
          "type": "address"
        }
      ],
      "name": "OwnableUnauthorizedAccount",
      "type": "error"
    },
    {
      "inputs": [
        {
          "internalType": "address",
          "name": "coldWallet",
          "type": "address"
        }
      ],
      "name": "PolicyExpired",
      "type": "error"
    },
    {
      "inputs": [
        {
          "internalType": "address",
          "name": "coldWallet",
          "type": "address"
        }
      ],
      "name": "PolicyInactive",
      "type": "error"
    },
    {
      "inputs": [],
      "name": "ReentrancyGuardReentrantCall",
      "type": "error"
    },
    {
      "inputs": [],
      "name": "SignatureExpired",
      "type": "error"
    },
    {
      "inputs": [],
      "name": "TransferFailed",
      "type": "error"
    },
    {
      "inputs": [],
      "name": "UUPSUnauthorizedCallContext",
      "type": "error"
    },
    {
      "inputs": [
        {
          "internalType": "bytes32",
          "name": "slot",
          "type": "bytes32"
        }
      ],
      "name": "UUPSUnsupportedProxiableUUID",
      "type": "error"
    },
    {
      "inputs": [],
      "name": "ZeroAmount",
      "type": "error"
    },
    {
      "anonymous": false,
      "inputs": [],
      "name": "EIP712DomainChanged",
      "type": "event"
    },
    {
      "anonymous": false,
      "inputs": [
        {
          "indexed": false,
          "internalType": "uint64",
          "name": "version",
          "type": "uint64"
        }
      ],
      "name": "Initialized",
      "type": "event"
    },
    {
      "anonymous": false,
      "inputs": [
        {
          "indexed": false,
          "internalType": "uint256",
          "name": "oldAmount",
          "type": "uint256"
        },
        {
          "indexed": false,
          "internalType": "uint256",
          "name": "newAmount",
          "type": "uint256"
        }
      ],
      "name": "MaxPolicyAmountUpdated",
      "type": "event"
    },
    {
      "anonymous": false,
      "inputs": [
        {
          "indexed": true,
          "internalType": "address",
          "name": "previousOwner",
          "type": "address"
        },
        {
          "indexed": true,
          "internalType": "address",
          "name": "newOwner",
          "type": "address"
        }
      ],
      "name": "OwnershipTransferStarted",
      "type": "event"
    },
    {
      "anonymous": false,
      "inputs": [
        {
          "indexed": true,
          "internalType": "address",
          "name": "previousOwner",
          "type": "address"
        },
        {
          "indexed": true,
          "internalType": "address",
          "name": "newOwner",
          "type": "address"
        }
      ],
      "name": "OwnershipTransferred",
      "type": "event"
    },
    {
      "anonymous": false,
      "inputs": [
        {
          "indexed": false,
          "internalType": "address",
          "name": "account",
          "type": "address"
        }
      ],
      "name": "Paused",
      "type": "event"
    },
    {
      "anonymous": false,
      "inputs": [
        {
          "indexed": true,
          "internalType": "address",
          "name": "coldWallet",
          "type": "address"
        },
        {
          "indexed": false,
          "internalType": "uint256",
          "name": "totalAmount",
          "type": "uint256"
        },
        {
          "indexed": false,
          "internalType": "uint256",
          "name": "deadline",
          "type": "uint256"
        }
      ],
      "name": "PolicyActivated",
      "type": "event"
    },
    {
      "anonymous": false,
      "inputs": [
        {
          "indexed": true,
          "internalType": "address",
          "name": "coldWallet",
          "type": "address"
        }
      ],
      "name": "PolicyReset",
      "type": "event"
    },
    {
      "anonymous": false,
      "inputs": [
        {
          "indexed": true,
          "internalType": "address",
          "name": "coldWallet",
          "type": "address"
        },
        {
          "indexed": true,
          "internalType": "address",
          "name": "relayer",
          "type": "address"
        }
      ],
      "name": "RelayerRegistered",
      "type": "event"
    },
    {
      "anonymous": false,
      "inputs": [
        {
          "indexed": true,
          "internalType": "bytes32",
          "name": "transferId",
          "type": "bytes32"
        },
        {
          "indexed": true,
          "internalType": "address",
          "name": "from",
          "type": "address"
        },
        {
          "indexed": true,
          "internalType": "address",
          "name": "to",
          "type": "address"
        },
        {
          "indexed": false,
          "internalType": "uint256",
          "name": "amount",
          "type": "uint256"
        }
      ],
      "name": "TransferExecuted",
      "type": "event"
    },
    {
      "anonymous": false,
      "inputs": [
        {
          "indexed": false,
          "internalType": "address",
          "name": "account",
          "type": "address"
        }
      ],
      "name": "Unpaused",
      "type": "event"
    },
    {
      "anonymous": false,
      "inputs": [
        {
          "indexed": true,
          "internalType": "address",
          "name": "implementation",
          "type": "address"
        }
      ],
      "name": "Upgraded",
      "type": "event"
    },
    {
      "inputs": [],
      "name": "REGISTER_RELAYER_TYPEHASH",
      "outputs": [
        {
          "internalType": "bytes32",
          "name": "",
          "type": "bytes32"
        }
      ],
      "stateMutability": "view",
      "type": "function"
    },
    {
      "inputs": [],
      "name": "UPGRADE_INTERFACE_VERSION",
      "outputs": [
        {
          "internalType": "string",
          "name": "",
          "type": "string"
        }
      ],
      "stateMutability": "view",
      "type": "function"
    },
    {
      "inputs": [],
      "name": "acceptOwnership",
      "outputs": [],
      "stateMutability": "nonpayable",
      "type": "function"
    },
    {
      "inputs": [
        {
          "internalType": "address",
          "name": "coldWallet",
          "type": "address"
        },
        {
          "internalType": "uint256",
          "name": "totalAmount",
          "type": "uint256"
        },
        {
          "internalType": "uint256",
          "name": "deadline",
          "type": "uint256"
        }
      ],
      "name": "activatePolicy",
      "outputs": [],
      "stateMutability": "nonpayable",
      "type": "function"
    },
    {
      "inputs": [
        {
          "internalType": "address",
          "name": "",
          "type": "address"
        }
      ],
      "name": "coldWalletRelayer",
      "outputs": [
        {
          "internalType": "address",
          "name": "",
          "type": "address"
        }
      ],
      "stateMutability": "view",
      "type": "function"
    },
    {
      "inputs": [],
      "name": "domainSeparator",
      "outputs": [
        {
          "internalType": "bytes32",
          "name": "",
          "type": "bytes32"
        }
      ],
      "stateMutability": "view",
      "type": "function"
    },
    {
      "inputs": [],
      "name": "eip712Domain",
      "outputs": [
        {
          "internalType": "bytes1",
          "name": "fields",
          "type": "bytes1"
        },
        {
          "internalType": "string",
          "name": "name",
          "type": "string"
        },
        {
          "internalType": "string",
          "name": "version",
          "type": "string"
        },
        {
          "internalType": "uint256",
          "name": "chainId",
          "type": "uint256"
        },
        {
          "internalType": "address",
          "name": "verifyingContract",
          "type": "address"
        },
        {
          "internalType": "bytes32",
          "name": "salt",
          "type": "bytes32"
        },
        {
          "internalType": "uint256[]",
          "name": "extensions",
          "type": "uint256[]"
        }
      ],
      "stateMutability": "view",
      "type": "function"
    },
    {
      "inputs": [
        {
          "internalType": "bytes32",
          "name": "transferId",
          "type": "bytes32"
        },
        {
          "internalType": "address",
          "name": "from",
          "type": "address"
        },
        {
          "internalType": "address",
          "name": "to",
          "type": "address"
        },
        {
          "internalType": "uint256",
          "name": "amount",
          "type": "uint256"
        }
      ],
      "name": "executeTransfer",
      "outputs": [],
      "stateMutability": "nonpayable",
      "type": "function"
    },
    {
      "inputs": [
        {
          "internalType": "address",
          "name": "coldWallet",
          "type": "address"
        }
      ],
      "name": "getPolicyBalance",
      "outputs": [
        {
          "internalType": "uint256",
          "name": "totalAmount",
          "type": "uint256"
        },
        {
          "internalType": "uint256",
          "name": "consumedAmount",
          "type": "uint256"
        },
        {
          "internalType": "uint256",
          "name": "remaining",
          "type": "uint256"
        },
        {
          "internalType": "uint256",
          "name": "deadline",
          "type": "uint256"
        },
        {
          "internalType": "bool",
          "name": "isActive",
          "type": "bool"
        },
        {
          "internalType": "bool",
          "name": "isExpired",
          "type": "bool"
        }
      ],
      "stateMutability": "view",
      "type": "function"
    },
    {
      "inputs": [
        {
          "internalType": "address",
          "name": "coldWallet",
          "type": "address"
        }
      ],
      "name": "getRelayerNonce",
      "outputs": [
        {
          "internalType": "uint256",
          "name": "",
          "type": "uint256"
        }
      ],
      "stateMutability": "view",
      "type": "function"
    },
    {
      "inputs": [
        {
          "internalType": "address",
          "name": "_usdcToken",
          "type": "address"
        },
        {
          "internalType": "address",
          "name": "_owner",
          "type": "address"
        }
      ],
      "name": "initialize",
      "outputs": [],
      "stateMutability": "nonpayable",
      "type": "function"
    },
    {
      "inputs": [
        {
          "internalType": "bytes32",
          "name": "transferId",
          "type": "bytes32"
        }
      ],
      "name": "isTransferExecuted",
      "outputs": [
        {
          "internalType": "bool",
          "name": "",
          "type": "bool"
        }
      ],
      "stateMutability": "view",
      "type": "function"
    },
    {
      "inputs": [],
      "name": "maxPolicyAmount",
      "outputs": [
        {
          "internalType": "uint256",
          "name": "",
          "type": "uint256"
        }
      ],
      "stateMutability": "view",
      "type": "function"
    },
    {
      "inputs": [],
      "name": "owner",
      "outputs": [
        {
          "internalType": "address",
          "name": "",
          "type": "address"
        }
      ],
      "stateMutability": "view",
      "type": "function"
    },
    {
      "inputs": [],
      "name": "pause",
      "outputs": [],
      "stateMutability": "nonpayable",
      "type": "function"
    },
    {
      "inputs": [],
      "name": "paused",
      "outputs": [
        {
          "internalType": "bool",
          "name": "",
          "type": "bool"
        }
      ],
      "stateMutability": "view",
      "type": "function"
    },
    {
      "inputs": [],
      "name": "pendingOwner",
      "outputs": [
        {
          "internalType": "address",
          "name": "",
          "type": "address"
        }
      ],
      "stateMutability": "view",
      "type": "function"
    },
    {
      "inputs": [
        {
          "internalType": "address",
          "name": "",
          "type": "address"
        }
      ],
      "name": "policies",
      "outputs": [
        {
          "internalType": "uint256",
          "name": "totalAmount",
          "type": "uint256"
        },
        {
          "internalType": "uint256",
          "name": "consumedAmount",
          "type": "uint256"
        },
        {
          "internalType": "uint256",
          "name": "deadline",
          "type": "uint256"
        },
        {
          "internalType": "bool",
          "name": "isActive",
          "type": "bool"
        }
      ],
      "stateMutability": "view",
      "type": "function"
    },
    {
      "inputs": [],
      "name": "proxiableUUID",
      "outputs": [
        {
          "internalType": "bytes32",
          "name": "",
          "type": "bytes32"
        }
      ],
      "stateMutability": "view",
      "type": "function"
    },
    {
      "inputs": [
        {
          "internalType": "address",
          "name": "coldWallet",
          "type": "address"
        },
        {
          "internalType": "address",
          "name": "relayer",
          "type": "address"
        },
        {
          "internalType": "uint256",
          "name": "deadline",
          "type": "uint256"
        },
        {
          "internalType": "bytes",
          "name": "signature",
          "type": "bytes"
        }
      ],
      "name": "registerRelayer",
      "outputs": [],
      "stateMutability": "nonpayable",
      "type": "function"
    },
    {
      "inputs": [
        {
          "internalType": "address",
          "name": "",
          "type": "address"
        }
      ],
      "name": "relayerNonces",
      "outputs": [
        {
          "internalType": "uint256",
          "name": "",
          "type": "uint256"
        }
      ],
      "stateMutability": "view",
      "type": "function"
    },
    {
      "inputs": [],
      "name": "renounceOwnership",
      "outputs": [],
      "stateMutability": "nonpayable",
      "type": "function"
    },
    {
      "inputs": [
        {
          "internalType": "address",
          "name": "coldWallet",
          "type": "address"
        }
      ],
      "name": "resetPolicy",
      "outputs": [],
      "stateMutability": "nonpayable",
      "type": "function"
    },
    {
      "inputs": [
        {
          "internalType": "uint256",
          "name": "newMax",
          "type": "uint256"
        }
      ],
      "name": "setMaxPolicyAmount",
      "outputs": [],
      "stateMutability": "nonpayable",
      "type": "function"
    },
    {
      "inputs": [
        {
          "internalType": "address",
          "name": "newOwner",
          "type": "address"
        }
      ],
      "name": "transferOwnership",
      "outputs": [],
      "stateMutability": "nonpayable",
      "type": "function"
    },
    {
      "inputs": [
        {
          "internalType": "bytes32",
          "name": "",
          "type": "bytes32"
        }
      ],
      "name": "transfers",
      "outputs": [
        {
          "internalType": "bool",
          "name": "",
          "type": "bool"
        }
      ],
      "stateMutability": "view",
      "type": "function"
    },
    {
      "inputs": [],
      "name": "unpause",
      "outputs": [],
      "stateMutability": "nonpayable",
      "type": "function"
    },
    {
      "inputs": [
        {
          "internalType": "address",
          "name": "newImplementation",
          "type": "address"
        },
        {
          "internalType": "bytes",
          "name": "data",
          "type": "bytes"
        }
      ],
      "name": "upgradeToAndCall",
      "outputs": [],
      "stateMutability": "payable",
      "type": "function"
    },
    {
      "inputs": [],
      "name": "usdcToken",
      "outputs": [
        {
          "internalType": "contract IERC20Permit",
          "name": "",
          "type": "address"
        }
      ],
      "stateMutability": "view",
      "type": "function"
    }
  ],
  "bytecode": "0x60a06040523060805234801561001457600080fd5b5061001d610022565b6100d4565b7ff0c57e16840df040f15088dc2f81fe391c3923bec73e23a9662efc9c229c6a00805468010000000000000000900460ff16156100725760405163f92ee8a960e01b815260040160405180910390fd5b80546001600160401b03908116146100d15780546001600160401b0319166001600160401b0390811782556040519081527fc7f505b2f371ae2175ee4913f4499e1f2633a7b5936321eed1cdaeb6115181d29060200160405180910390a15b50565b60805161241d6100fd600039600081816113b1015281816113da0152611520015261241d6000f3fe6080604052600436106101c25760003560e01c806379ba5097116100f7578063a20eb1e611610095578063e30c397811610064578063e30c3978146105e5578063e868bbbc146105fa578063f2fde38b14610610578063f698da251461063057600080fd5b8063a20eb1e614610537578063ad3cb1cc14610567578063d0b31888146105a5578063dd771de9146105c557600080fd5b80638c2d3799116100d15780638c2d3799146104ae5780638da5cb5b146104ce57806398d46254146104e3578063a11682cf1461050357600080fd5b806379ba50971461045c5780638456cb591461047157806384b0196e1461048657600080fd5b806352d1902d116101645780636430ccc41161013e5780636430ccc4146103bb5780636950e569146103f1578063715018a6146104115780637667fe531461042657600080fd5b806352d1902d146103305780635c975abb146103455780635fc8170e1461036a57600080fd5b80633c64f04b116101a05780633c64f04b146102a65780633f4ba83a146102e6578063485cc955146102fd5780634f1ef2861461031d57600080fd5b806311eac855146101c757806320e98698146102045780632900de921461026b575b600080fd5b3480156101d357600080fd5b506000546101e7906001600160a01b031681565b6040516001600160a01b0390911681526020015b60405180910390f35b34801561021057600080fd5b5061024961021f366004611e48565b60046020526000908152604090208054600182015460028301546003909301549192909160ff1684565b60408051948552602085019390935291830152151560608201526080016101fb565b34801561027757600080fd5b50610298610286366004611e48565b60036020526000908152604090205481565b6040519081526020016101fb565b3480156102b257600080fd5b506102d66102c1366004611e63565b60026020526000908152604090205460ff1681565b60405190151581526020016101fb565b3480156102f257600080fd5b506102fb610645565b005b34801561030957600080fd5b506102fb610318366004611e7c565b610657565b6102fb61032b366004611ec5565b610800565b34801561033c57600080fd5b5061029861081f565b34801561035157600080fd5b506000805160206123c88339815191525460ff166102d6565b34801561037657600080fd5b5061038a610385366004611e48565b61083c565b60408051968752602087019590955293850192909252606084015215156080830152151560a082015260c0016101fb565b3480156103c757600080fd5b506102986103d6366004611e48565b6001600160a01b031660009081526003602052604090205490565b3480156103fd57600080fd5b506102fb61040c366004611f8f565b6108a8565b34801561041d57600080fd5b506102fb610a7e565b34801561043257600080fd5b506101e7610441366004611e48565b6001602052600090815260409020546001600160a01b031681565b34801561046857600080fd5b506102fb610a90565b34801561047d57600080fd5b506102fb610add565b34801561049257600080fd5b5061049b610aed565b6040516101fb979695949392919061207c565b3480156104ba57600080fd5b506102fb6104c9366004612114565b610b99565b3480156104da57600080fd5b506101e7610d09565b3480156104ef57600080fd5b506102fb6104fe366004611e63565b610d3e565b34801561050f57600080fd5b506102987faefdbcc23eaaa6b5679093118dd8bb9139ebfd8558ff2e91effffbf08594f60b81565b34801561054357600080fd5b506102d6610552366004611e63565b60009081526002602052604090205460ff1690565b34801561057357600080fd5b50610598604051806040016040528060058152602001640352e302e360dc1b81525081565b6040516101fb9190612147565b3480156105b157600080fd5b506102fb6105c036600461215a565b610da8565b3480156105d157600080fd5b506102fb6105e0366004611e48565b61112a565b3480156105f157600080fd5b506101e76111f1565b34801561060657600080fd5b5061029860055481565b34801561061c57600080fd5b506102fb61062b366004611e48565b61121a565b34801561063c57600080fd5b5061029861129f565b61064d6112ae565b6106556112e0565b565b6000610661611340565b805490915060ff600160401b820416159067ffffffffffffffff166000811580156106895750825b905060008267ffffffffffffffff1660011480156106a65750303b155b9050811580156106b4575080155b156106d25760405163f92ee8a960e01b815260040160405180910390fd5b845467ffffffffffffffff1916600117855583156106fc57845460ff60401b1916600160401b1785555b6001600160a01b0387166107235760405163e6c4247b60e01b815260040160405180910390fd5b61072c8661136b565b61073461137c565b61073c611384565b61074461137c565b61078d6040518060400160405280600e81526020016d125b9cdd185b9d14185e5b595b9d60921b815250604051806040016040528060018152602001603160f81b815250611394565b600080546001600160a01b0319166001600160a01b0389161790556404a817c80060055583156107f757845460ff60401b19168555604051600181527fc7f505b2f371ae2175ee4913f4499e1f2633a7b5936321eed1cdaeb6115181d29060200160405180910390a15b50505050505050565b6108086113a6565b6108118261144b565b61081b8282611453565b5050565b6000610829611515565b506000805160206123a883398151915290565b6001600160a01b03811660009081526004602052604081208054600182015490929091819081908190858711610873576000610884565b6001810154815461088491906121b4565b6002820154600390920154979996985096909560ff90911694504286109350915050565b6001600160a01b03851615806108c557506001600160a01b038416155b156108e35760405163e6c4247b60e01b815260040160405180910390fd5b8242111561090457604051630819bdcd60e01b815260040160405180910390fd5b6001600160a01b0385811660008181526003602090815260408083205481517faefdbcc23eaaa6b5679093118dd8bb9139ebfd8558ff2e91effffbf08594f60b818501528083019590955294891660608501526080840188905260a08085018690528151808603909101815260c090940190528251920191909120906109898261155e565b905060006109cf86868080601f016020809104026020016040519081016040528093929190818152602001838380828437600092019190915250869392505061158b9050565b9050886001600160a01b0316816001600160a01b031614610a0357604051638baa579f60e01b815260040160405180910390fd5b610a0e8460016121c7565b6001600160a01b038a81166000818152600360209081526040808320959095556001905283812080546001600160a01b031916938d1693841790559251919290917f55c2562f3227abfc162a3acf6b0bd85cec2fa7edf4c1d5c57b50f95097ac096c9190a3505050505050505050565b610a866112ae565b61065560006115b5565b3380610a9a6111f1565b6001600160a01b031614610ad15760405163118cdaa760e01b81526001600160a01b03821660048201526024015b60405180910390fd5b610ada816115b5565b50565b610ae56112ae565b6106556115ed565b600060608082808083816000805160206123888339815191528054909150158015610b1a57506001810154155b610b5e5760405162461bcd60e51b81526020600482015260156024820152741152540dcc4c8e88155b9a5b9a5d1a585b1a5e9959605a1b6044820152606401610ac8565b610b66611636565b610b6e6116f9565b60408051600080825260208201909252600f60f81b9c939b5091995046985030975095509350915050565b6001600160a01b038381166000908152600160205260409020548491163314610be657604051631bc9c48760e11b81523360048201526001600160a01b0382166024820152604401610ac8565b610bee611738565b82600003610c0f57604051631f2a200560e01b815260040160405180910390fd5b600554831115610c40576005546040516307efdca960e21b8152610ac8918591600401918252602082015260400190565b428211610c6b57604051631cde006f60e11b81526001600160a01b0385166004820152602401610ac8565b60408051608081018252848152600060208083018281528385018781526001606086018181526001600160a01b038c16808752600486529588902096518755925190860155516002850155516003909301805460ff1916931515939093179092558251868152918201859052917f81df86a2b61400be4a11650390b55d3545cd72879f3de26700380ba01e64a5ab910160405180910390a250505050565b6000807f9016d09d72d40fdae2fd8ceac6b6234c7706214fd39c1cd1e609a0528c1993005b546001600160a01b031692915050565b610d466112ae565b80600003610d6757604051631f2a200560e01b815260040160405180910390fd5b60055460408051918252602082018390527fa1c1e65db494623f3b8f692b15a9f0e3c8c9e13547023d126f1e271f5e19675e910160405180910390a1600555565b6001600160a01b038381166000908152600160205260409020548491163314610df557604051631bc9c48760e11b81523360048201526001600160a01b0382166024820152604401610ac8565b610dfd611769565b610e05611738565b60008581526002602052604090205460ff1615610e385760405163d1d36dcd60e01b815260048101869052602401610ac8565b6001600160a01b0384166000908152600460205260409020600381015460ff16610e80576040516326d97ac960e11b81526001600160a01b0386166004820152602401610ac8565b8060020154421115610eb057604051631cde006f60e11b81526001600160a01b0386166004820152602401610ac8565b82600003610ed157604051631f2a200560e01b815260040160405180910390fd5b6001600160a01b038416610ef85760405163e6c4247b60e01b815260040160405180910390fd5b60018101548154600091610f0b916121b4565b905080841115610f38576040516370a85d3960e01b81526004810185905260248101829052604401610ac8565b60008054604051636eb1769f60e11b81526001600160a01b0389811660048301523060248301529091169063dd62ed3e90604401602060405180830381865afa158015610f89573d6000803e3d6000fd5b505050506040513d601f19601f82011682018060405250810190610fad91906121da565b905084811015610fda5760405163054365bb60e31b81526004810182905260248101869052604401610ac8565b6000888152600260205260408120805460ff19166001908117909155840180548792906110089084906121c7565b90915550506000546040516323b872dd60e01b81526001600160a01b038981166004830152888116602483015260448201889052909116906323b872dd906064016020604051808303816000875af1158015611068573d6000803e3d6000fd5b505050506040513d601f19601f8201168201806040525081019061108c91906121f3565b6110a9576040516312171d8360e31b815260040160405180910390fd5b856001600160a01b0316876001600160a01b0316897fda849593ab12eebd4796d9b30276de3bdd1288955bb2880193cc5fcbe5381dd0886040516110ef91815260200190565b60405180910390a450505061112360017f9b779b17422d0df92223018b32b4d1fa46e071723d6817e2486d003becc55f0055565b5050505050565b336001600160a01b0382161480159061115d57506001600160a01b03818116600090815260016020526040902054163314155b8015611182575061116c610d09565b6001600160a01b0316336001600160a01b031614155b156111a557604051600162b7a61760e01b03198152336004820152602401610ac8565b6001600160a01b038116600081815260046020526040808220600301805460ff19169055517fa903aa5fae0f87a3f95f82f45bc5d75b72eb9d9e03df19cbe46ffe07bc495f139190a250565b6000807f237e158222e3e6968b72b9db0d8043aacf074ad9f650f0d1606b4d82ee432c00610d2e565b6112226112ae565b7f237e158222e3e6968b72b9db0d8043aacf074ad9f650f0d1606b4d82ee432c0080546001600160a01b0319166001600160a01b0383169081178255611266610d09565b6001600160a01b03167f38d16b8cac22d99fc7c124b9cd0de2d3fa1faef420bfe791d8c362d765e2270060405160405180910390a35050565b60006112a96117d9565b905090565b336112b7610d09565b6001600160a01b0316146106555760405163118cdaa760e01b8152336004820152602401610ac8565b6112e86117e3565b6000805160206123c8833981519152805460ff191681557f5db9ee0a495bf2e6ff9c91a7834c1ba4fdd244a5e8aa4e537bd38aeae4b073aa335b6040516001600160a01b03909116815260200160405180910390a150565b6000807ff0c57e16840df040f15088dc2f81fe391c3923bec73e23a9662efc9c229c6a005b92915050565b611373611813565b610ada81611838565b610655611813565b61138c611813565b61065561186a565b61139c611813565b61081b8282611872565b306001600160a01b037f000000000000000000000000000000000000000000000000000000000000000016148061142d57507f00000000000000000000000000000000000000000000000000000000000000006001600160a01b03166114216000805160206123a8833981519152546001600160a01b031690565b6001600160a01b031614155b156106555760405163703e46dd60e11b815260040160405180910390fd5b610ada6112ae565b816001600160a01b03166352d1902d6040518163ffffffff1660e01b8152600401602060405180830381865afa9250505080156114ad575060408051601f3d908101601f191682019092526114aa918101906121da565b60015b6114d557604051634c9c8ce360e01b81526001600160a01b0383166004820152602401610ac8565b6000805160206123a8833981519152811461150657604051632a87526960e21b815260048101829052602401610ac8565b61151083836118d3565b505050565b306001600160a01b037f000000000000000000000000000000000000000000000000000000000000000016146106555760405163703e46dd60e11b815260040160405180910390fd5b600061136561156b6117d9565b8360405161190160f01b8152600281019290925260228201526042902090565b60008060008061159b8686611929565b9250925092506115ab8282611976565b5090949350505050565b7f237e158222e3e6968b72b9db0d8043aacf074ad9f650f0d1606b4d82ee432c0080546001600160a01b031916815561081b82611a2f565b6115f5611738565b6000805160206123c8833981519152805460ff191660011781557f62e78cea01bee320cd4e420270b5ea74000d11b0c9f74754ebdbfc544b05a25833611322565b7fa16a46d94261c7517cc8ff89f61c0ce93598e3c849801011dee649a6a557d10280546060916000805160206123888339815191529161167590612215565b80601f01602080910402602001604051908101604052809291908181526020018280546116a190612215565b80156116ee5780601f106116c3576101008083540402835291602001916116ee565b820191906000526020600020905b8154815290600101906020018083116116d157829003601f168201915b505050505091505090565b7fa16a46d94261c7517cc8ff89f61c0ce93598e3c849801011dee649a6a557d10380546060916000805160206123888339815191529161167590612215565b6000805160206123c88339815191525460ff16156106555760405163d93c066560e01b815260040160405180910390fd5b7f9b779b17422d0df92223018b32b4d1fa46e071723d6817e2486d003becc55f008054600119016117ad57604051633ee5aeb560e01b815260040160405180910390fd5b60029055565b60017f9b779b17422d0df92223018b32b4d1fa46e071723d6817e2486d003becc55f0055565b60006112a9611aa0565b6000805160206123c88339815191525460ff1661065557604051638dfc202b60e01b815260040160405180910390fd5b61181b611b14565b61065557604051631afcd79f60e31b815260040160405180910390fd5b611840611813565b6001600160a01b038116610ad157604051631e4fbdf760e01b815260006004820152602401610ac8565b6117b3611813565b61187a611813565b6000805160206123888339815191527fa16a46d94261c7517cc8ff89f61c0ce93598e3c849801011dee649a6a557d1026118b48482612296565b50600381016118c38382612296565b5060008082556001909101555050565b6118dc82611b2e565b6040516001600160a01b038316907fbc7cd75a20ee27fd9adebab32041f755214dbc6bffa90cc0225b39da2e5c2d3b90600090a2805115611921576115108282611b93565b61081b611c09565b600080600083516041036119635760208401516040850151606086015160001a61195588828585611c28565b95509550955050505061196f565b50508151600091506002905b9250925092565b600082600381111561198a5761198a612355565b03611993575050565b60018260038111156119a7576119a7612355565b036119c55760405163f645eedf60e01b815260040160405180910390fd5b60028260038111156119d9576119d9612355565b036119fa5760405163fce698f760e01b815260048101829052602401610ac8565b6003826003811115611a0e57611a0e612355565b0361081b576040516335e2f38360e21b815260048101829052602401610ac8565b7f9016d09d72d40fdae2fd8ceac6b6234c7706214fd39c1cd1e609a0528c19930080546001600160a01b031981166001600160a01b03848116918217845560405192169182907f8be0079c531659141344cd1fd0a4f28419497f9722a3daafe3b4186f6b6457e090600090a3505050565b60007f8b73c3c69bb8fe3d512ecc4cf759cc79239f7b179b0ffacaa9a75d522b39400f611acb611cf7565b611ad3611d61565b60408051602081019490945283019190915260608201524660808201523060a082015260c00160405160208183030381529060405280519060200120905090565b6000611b1e611340565b54600160401b900460ff16919050565b806001600160a01b03163b600003611b6457604051634c9c8ce360e01b81526001600160a01b0382166004820152602401610ac8565b6000805160206123a883398151915280546001600160a01b0319166001600160a01b0392909216919091179055565b6060600080846001600160a01b031684604051611bb0919061236b565b600060405180830381855af49150503d8060008114611beb576040519150601f19603f3d011682016040523d82523d6000602084013e611bf0565b606091505b5091509150611c00858383611da5565b95945050505050565b34156106555760405163b398979f60e01b815260040160405180910390fd5b600080807f7fffffffffffffffffffffffffffffff5d576e7357a4501ddfe92f46681b20a0841115611c635750600091506003905082611ced565b604080516000808252602082018084528a905260ff891692820192909252606081018790526080810186905260019060a0016020604051602081039080840390855afa158015611cb7573d6000803e3d6000fd5b5050604051601f1901519150506001600160a01b038116611ce357506000925060019150829050611ced565b9250600091508190505b9450945094915050565b600060008051602061238883398151915281611d11611636565b805190915015611d2957805160209091012092915050565b81548015611d38579392505050565b7fc5d2460186f7233c927e7db2dcc703c0e500b653ca82273b7bfad8045d85a470935050505090565b600060008051602061238883398151915281611d7b6116f9565b805190915015611d9357805160209091012092915050565b60018201548015611d38579392505050565b606082611dba57611db582611e04565b611dfd565b8151158015611dd157506001600160a01b0384163b155b15611dfa57604051639996b31560e01b81526001600160a01b0385166004820152602401610ac8565b50805b9392505050565b805115611e1357805160208201fd5b60405163d6bda27560e01b815260040160405180910390fd5b80356001600160a01b0381168114611e4357600080fd5b919050565b600060208284031215611e5a57600080fd5b611dfd82611e2c565b600060208284031215611e7557600080fd5b5035919050565b60008060408385031215611e8f57600080fd5b611e9883611e2c565b9150611ea660208401611e2c565b90509250929050565b634e487b7160e01b600052604160045260246000fd5b60008060408385031215611ed857600080fd5b611ee183611e2c565b9150602083013567ffffffffffffffff811115611efd57600080fd5b8301601f81018513611f0e57600080fd5b803567ffffffffffffffff811115611f2857611f28611eaf565b604051601f8201601f19908116603f0116810167ffffffffffffffff81118282101715611f5757611f57611eaf565b604052818152828201602001871015611f6f57600080fd5b816020840160208301376000602083830101528093505050509250929050565b600080600080600060808688031215611fa757600080fd5b611fb086611e2c565b9450611fbe60208701611e2c565b935060408601359250606086013567ffffffffffffffff811115611fe157600080fd5b8601601f81018813611ff257600080fd5b803567ffffffffffffffff81111561200957600080fd5b88602082840101111561201b57600080fd5b959894975092955050506020019190565b60005b8381101561204757818101518382015260200161202f565b50506000910152565b6000815180845261206881602086016020860161202c565b601f01601f19169290920160200192915050565b60ff60f81b8816815260e06020820152600061209b60e0830189612050565b82810360408401526120ad8189612050565b606084018890526001600160a01b038716608085015260a0840186905283810360c08501528451808252602080870193509091019060005b818110156121035783518352602093840193909201916001016120e5565b50909b9a5050505050505050505050565b60008060006060848603121561212957600080fd5b61213284611e2c565b95602085013595506040909401359392505050565b602081526000611dfd6020830184612050565b6000806000806080858703121561217057600080fd5b8435935061218060208601611e2c565b925061218e60408601611e2c565b9396929550929360600135925050565b634e487b7160e01b600052601160045260246000fd5b818103818111156113655761136561219e565b808201808211156113655761136561219e565b6000602082840312156121ec57600080fd5b5051919050565b60006020828403121561220557600080fd5b81518015158114611dfd57600080fd5b600181811c9082168061222957607f821691505b60208210810361224957634e487b7160e01b600052602260045260246000fd5b50919050565b601f82111561151057806000526020600020601f840160051c810160208510156122765750805b601f840160051c820191505b818110156111235760008155600101612282565b815167ffffffffffffffff8111156122b0576122b0611eaf565b6122c4816122be8454612215565b8461224f565b6020601f8211600181146122f857600083156122e05750848201515b600019600385901b1c1916600184901b178455611123565b600084815260208120601f198516915b828110156123285787850151825560209485019460019092019101612308565b50848210156123465786840151600019600387901b60f8161c191681555b50505050600190811b01905550565b634e487b7160e01b600052602160045260246000fd5b6000825161237d81846020870161202c565b919091019291505056fea16a46d94261c7517cc8ff89f61c0ce93598e3c849801011dee649a6a557d100360894a13ba1a3210667c828492db98dca3e2076cc3735a920a3ca505d382bbccd5ed15c6e187e77e9aee88184c21f4f2182ab5827cb3b7e07fbedcd63f03300a26469706673582212209d059397d0b6a61f11951d9be4fb1a47df47b458375b63850122992e02de4d8064736f6c634300081a0033",
  "linkReferences": {},
  "deployedLinkReferences": {}
}