{
  "_format": "hh-sol-artifact-1",
  "contractName": "InstantPaymentV2",
  "sourceName": "contracts/InstantPaymentV2.sol",
  "abi": [
    {
      "inputs": [],
      "stateMutability": "nonpayable",
      "type": "constructor"
    },
    {
      "inputs": [
        {
          "internalType": "address",
          "name": "target",
          "type": "address"
        }
      ],
      "name": "AddressEmptyCode",
      "type": "error"
    },
    {
      "inputs": [
        {
          "internalType": "bytes32",
          "name": "transferId",
          "type": "bytes32"
        }
      ],
      "name": "AlreadyExecuted",
      "type": "error"
    },
    {
      "inputs": [],
      "name": "ECDSAInvalidSignature",
      "type": "error"
    },
    {
      "inputs": [
        {
          "internalType": "uint256",
          "name": "length",
          "type": "uint256"
        }
      ],
      "name": "ECDSAInvalidSignatureLength",
      "type": "error"
    },
    {
      "inputs": [
        {
          "internalType": "bytes32",
          "name": "s",
          "type": "bytes32"
        }
      ],
      "name": "ECDSAInvalidSignatureS",
      "type": "error"
    },
    {
      "inputs": [
        {
          "internalType": "address",
          "name": "implementation",
          "type": "address"
        }
      ],
      "name": "ERC1967InvalidImplementation",
      "type": "error"
    },
    {
      "inputs": [],
      "name": "ERC1967NonPayable",
      "type": "error"
    },
    {
      "inputs": [],
      "name": "EnforcedPause",
      "type": "error"
    },
    {
      "inputs": [
        {
          "internalType": "uint256",
          "name": "requested",
          "type": "uint256"
        },
        {
          "internalType": "uint256",
          "name": "maxAllowed",
          "type": "uint256"
        }
      ],
      "name": "ExceedsMaxPolicyAmount",
      "type": "error"
    },
    {
      "inputs": [],
      "name": "ExpectedPause",
      "type": "error"
    },
    {
      "inputs": [],
      "name": "FailedCall",
      "type": "error"
    },
    {
      "inputs": [
        {
          "internalType": "uint256",
          "name": "allowance",
          "type": "uint256"
        },
        {
          "internalType": "uint256",
          "name": "needed",
          "type": "uint256"
        }
      ],
      "name": "InsufficientAllowance",
      "type": "error"
    },
    {
      "inputs": [],
      "name": "InvalidAddress",
      "type": "error"
    },
    {
      "inputs": [],
      "name": "InvalidInitialization",
      "type": "error"
    },
    {
      "inputs": [],
      "name": "InvalidSignature",
      "type": "error"
    },
    {
      "inputs": [
        {
          "internalType": "address",
          "name": "caller",
          "type": "address"
        },
        {
          "internalType": "address",
          "name": "coldWallet",
          "type": "address"
        }
      ],
      "name": "NotAuthorizedRelayer",
      "type": "error"
    },
    {
      "inputs": [
        {
          "internalType": "address",
          "name": "caller",
          "type": "address"
        }
      ],
      "name": "NotAuthorizedToReset",
      "type": "error"
    },
    {
      "inputs": [],
      "name": "NotInitializing",
      "type": "error"
    },
    {
      "inputs": [
        {
          "internalType": "address",
          "name": "owner",
          "type": "address"
        }
      ],
      "name": "OwnableInvalidOwner",
      "type": "error"
    },
    {
      "inputs": [
        {
          "internalType": "address",
          "name": "account",
          "type": "address"
        }
      ],
      "name": "OwnableUnauthorizedAccount",
      "type": "error"
    },
    {
      "inputs": [
        {
          "internalType": "address",
          "name": "coldWallet",
          "type": "address"
        }
      ],
      "name": "PolicyExpired",
      "type": "error"
    },
    {
      "inputs": [
        {
          "internalType": "address",
          "name": "coldWallet",
          "type": "address"
        }
      ],
      "name": "PolicyInactive",
      "type": "error"
    },
    {
      "inputs": [],
      "name": "ReentrancyGuardReentrantCall",
      "type": "error"
    },
    {
      "inputs": [],
      "name": "SignatureExpired",
      "type": "error"
    },
    {
      "inputs": [],
      "name": "TransferFailed",
      "type": "error"
    },
    {
      "inputs": [],
      "name": "UUPSUnauthorizedCallContext",
      "type": "error"
    },
    {
      "inputs": [
        {
          "internalType": "bytes32",
          "name": "slot",
          "type": "bytes32"
        }
      ],
      "name": "UUPSUnsupportedProxiableUUID",
      "type": "error"
    },
    {
      "inputs": [],
      "name": "ZeroAmount",
      "type": "error"
    },
    {
      "anonymous": false,
      "inputs": [],
      "name": "EIP712DomainChanged",
      "type": "event"
    },
    {
      "anonymous": false,
      "inputs": [
        {
          "indexed": false,
          "internalType": "uint64",
          "name": "version",
          "type": "uint64"
        }
      ],
      "name": "Initialized",
      "type": "event"
    },
    {
      "anonymous": false,
      "inputs": [
        {
          "indexed": false,
          "internalType": "uint256",
          "name": "oldAmount",
          "type": "uint256"
        },
        {
          "indexed": false,
          "internalType": "uint256",
          "name": "newAmount",
          "type": "uint256"
        }
      ],
      "name": "MaxPolicyAmountUpdated",
      "type": "event"
    },
    {
      "anonymous": false,
      "inputs": [
        {
          "indexed": true,
          "internalType": "address",
          "name": "previousOwner",
          "type": "address"
        },
        {
          "indexed": true,
          "internalType": "address",
          "name": "newOwner",
          "type": "address"
        }
      ],
      "name": "OwnershipTransferStarted",
      "type": "event"
    },
    {
      "anonymous": false,
      "inputs": [
        {
          "indexed": true,
          "internalType": "address",
          "name": "previousOwner",
          "type": "address"
        },
        {
          "indexed": true,
          "internalType": "address",
          "name": "newOwner",
          "type": "address"
        }
      ],
      "name": "OwnershipTransferred",
      "type": "event"
    },
    {
      "anonymous": false,
      "inputs": [
        {
          "indexed": false,
          "internalType": "address",
          "name": "account",
          "type": "address"
        }
      ],
      "name": "Paused",
      "type": "event"
    },
    {
      "anonymous": false,
      "inputs": [
        {
          "indexed": true,
          "internalType": "address",
          "name": "coldWallet",
          "type": "address"
        },
        {
          "indexed": false,
          "internalType": "uint256",
          "name": "initialAmount",
          "type": "uint256"
        },
        {
          "indexed": false,
          "internalType": "uint256",
          "name": "deadline",
          "type": "uint256"
        }
      ],
      "name": "PolicyActivated",
      "type": "event"
    },
    {
      "anonymous": false,
      "inputs": [
        {
          "indexed": true,
          "internalType": "address",
          "name": "coldWallet",
          "type": "address"
        }
      ],
      "name": "PolicyReset",
      "type": "event"
    },
    {
      "anonymous": false,
      "inputs": [
        {
          "indexed": true,
          "internalType": "address",
          "name": "coldWallet",
          "type": "address"
        },
        {
          "indexed": true,
          "internalType": "address",
          "name": "relayer",
          "type": "address"
        }
      ],
      "name": "RelayerRegistered",
      "type": "event"
    },
    {
      "anonymous": false,
      "inputs": [
        {
          "indexed": true,
          "internalType": "bytes32",
          "name": "transferId",
          "type": "bytes32"
        },
        {
          "indexed": true,
          "internalType": "address",
          "name": "from",
          "type": "address"
        },
        {
          "indexed": true,
          "internalType": "address",
          "name": "to",
          "type": "address"
        },
        {
          "indexed": false,
          "internalType": "uint256",
          "name": "amount",
          "type": "uint256"
        }
      ],
      "name": "TransferExecuted",
      "type": "event"
    },
    {
      "anonymous": false,
      "inputs": [
        {
          "indexed": false,
          "internalType": "address",
          "name": "account",
          "type": "address"
        }
      ],
      "name": "Unpaused",
      "type": "event"
    },
    {
      "anonymous": false,
      "inputs": [
        {
          "indexed": true,
          "internalType": "address",
          "name": "implementation",
          "type": "address"
        }
      ],
      "name": "Upgraded",
      "type": "event"
    },
    {
      "inputs": [],
      "name": "REGISTER_RELAYER_TYPEHASH",
      "outputs": [
        {
          "internalType": "bytes32",
          "name": "",
          "type": "bytes32"
        }
      ],
      "stateMutability": "view",
      "type": "function"
    },
    {
      "inputs": [],
      "name": "UPGRADE_INTERFACE_VERSION",
      "outputs": [
        {
          "internalType": "string",
          "name": "",
          "type": "string"
        }
      ],
      "stateMutability": "view",
      "type": "function"
    },
    {
      "inputs": [],
      "name": "acceptOwnership",
      "outputs": [],
      "stateMutability": "nonpayable",
      "type": "function"
    },
    {
      "inputs": [
        {
          "internalType": "address",
          "name": "coldWallet",
          "type": "address"
        },
        {
          "internalType": "uint256",
          "name": "totalAmount",
          "type": "uint256"
        },
        {
          "internalType": "uint256",
          "name": "deadline",
          "type": "uint256"
        }
      ],
      "name": "activatePolicy",
      "outputs": [],
      "stateMutability": "nonpayable",
      "type": "function"
    },
    {
      "inputs": [
        {
          "internalType": "address",
          "name": "coldWallet",
          "type": "address"
        },
        {
          "internalType": "uint256",
          "name": "amount",
          "type": "uint256"
        },
        {
          "internalType": "uint256",
          "name": "deadline",
          "type": "uint256"
        },
        {
          "internalType": "uint8",
          "name": "v",
          "type": "uint8"
        },
        {
          "internalType": "bytes32",
          "name": "r",
          "type": "bytes32"
        },
        {
          "internalType": "bytes32",
          "name": "s",
          "type": "bytes32"
        }
      ],
      "name": "activatePolicyWithPermit",
      "outputs": [],
      "stateMutability": "nonpayable",
      "type": "function"
    },
    {
      "inputs": [
        {
          "internalType": "address",
          "name": "",
          "type": "address"
        }
      ],
      "name": "coldWalletRelayer",
      "outputs": [
        {
          "internalType": "address",
          "name": "",
          "type": "address"
        }
      ],
      "stateMutability": "view",
      "type": "function"
    },
    {
      "inputs": [],
      "name": "domainSeparator",
      "outputs": [
        {
          "internalType": "bytes32",
          "name": "",
          "type": "bytes32"
        }
      ],
      "stateMutability": "view",
      "type": "function"
    },
    {
      "inputs": [],
      "name": "eip712Domain",
      "outputs": [
        {
          "internalType": "bytes1",
          "name": "fields",
          "type": "bytes1"
        },
        {
          "internalType": "string",
          "name": "name",
          "type": "string"
        },
        {
          "internalType": "string",
          "name": "version",
          "type": "string"
        },
        {
          "internalType": "uint256",
          "name": "chainId",
          "type": "uint256"
        },
        {
          "internalType": "address",
          "name": "verifyingContract",
          "type": "address"
        },
        {
          "internalType": "bytes32",
          "name": "salt",
          "type": "bytes32"
        },
        {
          "internalType": "uint256[]",
          "name": "extensions",
          "type": "uint256[]"
        }
      ],
      "stateMutability": "view",
      "type": "function"
    },
    {
      "inputs": [
        {
          "internalType": "bytes32",
          "name": "transferId",
          "type": "bytes32"
        },
        {
          "internalType": "address",
          "name": "from",
          "type": "address"
        },
        {
          "internalType": "address",
          "name": "to",
          "type": "address"
        },
        {
          "internalType": "uint256",
          "name": "amount",
          "type": "uint256"
        }
      ],
      "name": "executeTransfer",
      "outputs": [],
      "stateMutability": "nonpayable",
      "type": "function"
    },
    {
      "inputs": [
        {
          "internalType": "address",
          "name": "coldWallet",
          "type": "address"
        }
      ],
      "name": "getPolicyBalance",
      "outputs": [
        {
          "internalType": "uint256",
          "name": "initialAmount",
          "type": "uint256"
        },
        {
          "internalType": "uint256",
          "name": "consumedAmount",
          "type": "uint256"
        },
        {
          "internalType": "uint256",
          "name": "remaining",
          "type": "uint256"
        },
        {
          "internalType": "uint256",
          "name": "deadline",
          "type": "uint256"
        },
        {
          "internalType": "bool",
          "name": "isActive",
          "type": "bool"
        },
        {
          "internalType": "bool",
          "name": "isExpired",
          "type": "bool"
        }
      ],
      "stateMutability": "view",
      "type": "function"
    },
    {
      "inputs": [
        {
          "internalType": "address",
          "name": "coldWallet",
          "type": "address"
        }
      ],
      "name": "getRelayerNonce",
      "outputs": [
        {
          "internalType": "uint256",
          "name": "",
          "type": "uint256"
        }
      ],
      "stateMutability": "view",
      "type": "function"
    },
    {
      "inputs": [
        {
          "internalType": "address",
          "name": "_usdcToken",
          "type": "address"
        },
        {
          "internalType": "address",
          "name": "_owner",
          "type": "address"
        }
      ],
      "name": "initialize",
      "outputs": [],
      "stateMutability": "nonpayable",
      "type": "function"
    },
    {
      "inputs": [
        {
          "internalType": "bytes32",
          "name": "transferId",
          "type": "bytes32"
        }
      ],
      "name": "isTransferExecuted",
      "outputs": [
        {
          "internalType": "bool",
          "name": "",
          "type": "bool"
        }
      ],
      "stateMutability": "view",
      "type": "function"
    },
    {
      "inputs": [],
      "name": "maxPolicyAmount",
      "outputs": [
        {
          "internalType": "uint256",
          "name": "",
          "type": "uint256"
        }
      ],
      "stateMutability": "view",
      "type": "function"
    },
    {
      "inputs": [],
      "name": "owner",
      "outputs": [
        {
          "internalType": "address",
          "name": "",
          "type": "address"
        }
      ],
      "stateMutability": "view",
      "type": "function"
    },
    {
      "inputs": [],
      "name": "pause",
      "outputs": [],
      "stateMutability": "nonpayable",
      "type": "function"
    },
    {
      "inputs": [],
      "name": "paused",
      "outputs": [
        {
          "internalType": "bool",
          "name": "",
          "type": "bool"
        }
      ],
      "stateMutability": "view",
      "type": "function"
    },
    {
      "inputs": [],
      "name": "pendingOwner",
      "outputs": [
        {
          "internalType": "address",
          "name": "",
          "type": "address"
        }
      ],
      "stateMutability": "view",
      "type": "function"
    },
    {
      "inputs": [
        {
          "internalType": "address",
          "name": "",
          "type": "address"
        }
      ],
      "name": "policies",
      "outputs": [
        {
          "internalType": "uint256",
          "name": "initialAmount",
          "type": "uint256"
        },
        {
          "internalType": "uint256",
          "name": "consumedAmount",
          "type": "uint256"
        },
        {
          "internalType": "uint256",
          "name": "deadline",
          "type": "uint256"
        },
        {
          "internalType": "bool",
          "name": "isActive",
          "type": "bool"
        }
      ],
      "stateMutability": "view",
      "type": "function"
    },
    {
      "inputs": [],
      "name": "proxiableUUID",
      "outputs": [
        {
          "internalType": "bytes32",
          "name": "",
          "type": "bytes32"
        }
      ],
      "stateMutability": "view",
      "type": "function"
    },
    {
      "inputs": [
        {
          "internalType": "address",
          "name": "coldWallet",
          "type": "address"
        },
        {
          "internalType": "address",
          "name": "relayer",
          "type": "address"
        },
        {
          "internalType": "uint256",
          "name": "deadline",
          "type": "uint256"
        },
        {
          "internalType": "bytes",
          "name": "signature",
          "type": "bytes"
        }
      ],
      "name": "registerRelayer",
      "outputs": [],
      "stateMutability": "nonpayable",
      "type": "function"
    },
    {
      "inputs": [
        {
          "internalType": "address",
          "name": "",
          "type": "address"
        }
      ],
      "name": "relayerNonces",
      "outputs": [
        {
          "internalType": "uint256",
          "name": "",
          "type": "uint256"
        }
      ],
      "stateMutability": "view",
      "type": "function"
    },
    {
      "inputs": [],
      "name": "renounceOwnership",
      "outputs": [],
      "stateMutability": "nonpayable",
      "type": "function"
    },
    {
      "inputs": [
        {
          "internalType": "address",
          "name": "coldWallet",
          "type": "address"
        }
      ],
      "name": "resetPolicy",
      "outputs": [],
      "stateMutability": "nonpayable",
      "type": "function"
    },
    {
      "inputs": [
        {
          "internalType": "uint256",
          "name": "newMax",
          "type": "uint256"
        }
      ],
      "name": "setMaxPolicyAmount",
      "outputs": [],
      "stateMutability": "nonpayable",
      "type": "function"
    },
    {
      "inputs": [
        {
          "internalType": "address",
          "name": "newOwner",
          "type": "address"
        }
      ],
      "name": "transferOwnership",
      "outputs": [],
      "stateMutability": "nonpayable",
      "type": "function"
    },
    {
      "inputs": [
        {
          "internalType": "bytes32",
          "name": "",
          "type": "bytes32"
        }
      ],
      "name": "transfers",
      "outputs": [
        {
          "internalType": "bool",
          "name": "",
          "type": "bool"
        }
      ],
      "stateMutability": "view",
      "type": "function"
    },
    {
      "inputs": [],
      "name": "unpause",
      "outputs": [],
      "stateMutability": "nonpayable",
      "type": "function"
    },
    {
      "inputs": [
        {
          "internalType": "address",
          "name": "newImplementation",
          "type": "address"
        },
        {
          "internalType": "bytes",
          "name": "data",
          "type": "bytes"
        }
      ],
      "name": "upgradeToAndCall",
      "outputs": [],
      "stateMutability": "payable",
      "type": "function"
    },
    {
      "inputs": [],
      "name": "usdcToken",
      "outputs": [
        {
          "internalType": "contract IERC20Permit",
          "name": "",
          "type": "address"
        }
      ],
      "stateMutability": "view",
      "type": "function"
    },
    {
      "inputs": [],
      "name": "version",
      "outputs": [
        {
          "internalType": "string",
          "name": "",
          "type": "string"
        }
      ],
      "stateMutability": "pure",
      "type": "function"
    }
  ],
  "bytecode": "0x60a06040523060805234801561001457600080fd5b5061001d610022565b6100d4565b7ff0c57e16840df040f15088dc2f81fe391c3923bec73e23a9662efc9c229c6a00805468010000000000000000900460ff16156100725760405163f92ee8a960e01b815260040160405180910390fd5b80546001600160401b03908116146100d15780546001600160401b0319166001600160401b0390811782556040519081527fc7f505b2f371ae2175ee4913f4499e1f2633a7b5936321eed1cdaeb6115181d29060200160405180910390a15b50565b6080516127076100fd600039600081816116560152818161167f01526117c501526127076000f3fe6080604052600436106101d85760003560e01c806379ba509711610102578063ad3cb1cc11610095578063e868bbbc11610064578063e868bbbc1461063a578063f2fde38b14610650578063f698da2514610670578063ff2e59661461068557600080fd5b8063ad3cb1cc146105b4578063d0b31888146105e5578063dd771de914610605578063e30c39781461062557600080fd5b80638da5cb5b116100d15780638da5cb5b1461051b57806398d4625414610530578063a11682cf14610550578063a20eb1e61461058457600080fd5b806379ba5097146104a95780638456cb59146104be57806384b0196e146104d35780638c2d3799146104fb57600080fd5b806352d1902d1161017a5780636430ccc4116101495780636430ccc4146104085780636950e5691461043e578063715018a61461045e5780637667fe531461047357600080fd5b806352d1902d1461034657806354fd4d501461035b5780635c975abb146103925780635fc8170e146103b757600080fd5b80633c64f04b116101b65780633c64f04b146102bc5780633f4ba83a146102fc578063485cc955146103135780634f1ef2861461033357600080fd5b806311eac855146101dd57806320e986981461021a5780632900de9214610281575b600080fd5b3480156101e957600080fd5b506000546101fd906001600160a01b031681565b6040516001600160a01b0390911681526020015b60405180910390f35b34801561022657600080fd5b5061025f6102353660046120ed565b60046020526000908152604090208054600182015460028301546003909301549192909160ff1684565b6040805194855260208501939093529183015215156060820152608001610211565b34801561028d57600080fd5b506102ae61029c3660046120ed565b60036020526000908152604090205481565b604051908152602001610211565b3480156102c857600080fd5b506102ec6102d7366004612108565b60026020526000908152604090205460ff1681565b6040519015158152602001610211565b34801561030857600080fd5b506103116106a5565b005b34801561031f57600080fd5b5061031161032e366004612121565b6106b7565b61031161034136600461216a565b610860565b34801561035257600080fd5b506102ae61087f565b34801561036757600080fd5b506040805180820190915260058152640322e302e360dc1b60208201525b6040516102119190612284565b34801561039e57600080fd5b506000805160206126b28339815191525460ff166102ec565b3480156103c357600080fd5b506103d76103d23660046120ed565b61089c565b60408051968752602087019590955293850192909252606084015215156080830152151560a082015260c001610211565b34801561041457600080fd5b506102ae6104233660046120ed565b6001600160a01b031660009081526003602052604090205490565b34801561044a57600080fd5b50610311610459366004612297565b610952565b34801561046a57600080fd5b50610311610b28565b34801561047f57600080fd5b506101fd61048e3660046120ed565b6001602052600090815260409020546001600160a01b031681565b3480156104b557600080fd5b50610311610b3a565b3480156104ca57600080fd5b50610311610b87565b3480156104df57600080fd5b506104e8610b97565b6040516102119796959493929190612334565b34801561050757600080fd5b506103116105163660046123cc565b610c43565b34801561052757600080fd5b506101fd610db3565b34801561053c57600080fd5b5061031161054b366004612108565b610de8565b34801561055c57600080fd5b506102ae7faefdbcc23eaaa6b5679093118dd8bb9139ebfd8558ff2e91effffbf08594f60b81565b34801561059057600080fd5b506102ec61059f366004612108565b60009081526002602052604090205460ff1690565b3480156105c057600080fd5b50610385604051806040016040528060058152602001640352e302e360dc1b81525081565b3480156105f157600080fd5b506103116106003660046123ff565b610e52565b34801561061157600080fd5b506103116106203660046120ed565b611193565b34801561063157600080fd5b506101fd61125a565b34801561064657600080fd5b506102ae60055481565b34801561065c57600080fd5b5061031161066b3660046120ed565b611283565b34801561067c57600080fd5b506102ae611308565b34801561069157600080fd5b506103116106a0366004612443565b611317565b6106ad611553565b6106b5611585565b565b60006106c16115e5565b805490915060ff600160401b820416159067ffffffffffffffff166000811580156106e95750825b905060008267ffffffffffffffff1660011480156107065750303b155b905081158015610714575080155b156107325760405163f92ee8a960e01b815260040160405180910390fd5b845467ffffffffffffffff19166001178555831561075c57845460ff60401b1916600160401b1785555b6001600160a01b0387166107835760405163e6c4247b60e01b815260040160405180910390fd5b61078c86611610565b610794611621565b61079c611629565b6107a4611621565b6107ed6040518060400160405280600e81526020016d125b9cdd185b9d14185e5b595b9d60921b815250604051806040016040528060018152602001603160f81b815250611639565b600080546001600160a01b0319166001600160a01b0389161790556404a817c800600555831561085757845460ff60401b19168555604051600181527fc7f505b2f371ae2175ee4913f4499e1f2633a7b5936321eed1cdaeb6115181d29060200160405180910390a15b50505050505050565b61086861164b565b610871826116f0565b61087b82826116f8565b5050565b60006108896117ba565b5060008051602061269283398151915290565b6001600160a01b0381811660008181526004602081905260408083208054600182015485549351636eb1769f60e11b8152948501969096523060248501529584938493849392169063dd62ed3e90604401602060405180830381865afa15801561090a573d6000803e3d6000fd5b505050506040513d601f19601f8201168201806040525081019061092e91906124a3565b6002820154600390920154979996985096909560ff90911694504286109350915050565b6001600160a01b038516158061096f57506001600160a01b038416155b1561098d5760405163e6c4247b60e01b815260040160405180910390fd5b824211156109ae57604051630819bdcd60e01b815260040160405180910390fd5b6001600160a01b0385811660008181526003602090815260408083205481517faefdbcc23eaaa6b5679093118dd8bb9139ebfd8558ff2e91effffbf08594f60b818501528083019590955294891660608501526080840188905260a08085018690528151808603909101815260c09094019052825192019190912090610a3382611803565b90506000610a7986868080601f01602080910402602001604051908101604052809392919081815260200183838082843760009201919091525086939250506118309050565b9050886001600160a01b0316816001600160a01b031614610aad57604051638baa579f60e01b815260040160405180910390fd5b610ab88460016124bc565b6001600160a01b038a81166000818152600360209081526040808320959095556001905283812080546001600160a01b031916938d1693841790559251919290917f55c2562f3227abfc162a3acf6b0bd85cec2fa7edf4c1d5c57b50f95097ac096c9190a3505050505050505050565b610b30611553565b6106b5600061185a565b3380610b4461125a565b6001600160a01b031614610b7b5760405163118cdaa760e01b81526001600160a01b03821660048201526024015b60405180910390fd5b610b848161185a565b50565b610b8f611553565b6106b5611892565b600060608082808083816000805160206126728339815191528054909150158015610bc457506001810154155b610c085760405162461bcd60e51b81526020600482015260156024820152741152540dcc4c8e88155b9a5b9a5d1a585b1a5e9959605a1b6044820152606401610b72565b610c106118db565b610c1861199e565b60408051600080825260208201909252600f60f81b9c939b5091995046985030975095509350915050565b6001600160a01b038381166000908152600160205260409020548491163314610c9057604051631bc9c48760e11b81523360048201526001600160a01b0382166024820152604401610b72565b610c986119dd565b82600003610cb957604051631f2a200560e01b815260040160405180910390fd5b600554831115610cea576005546040516307efdca960e21b8152610b72918591600401918252602082015260400190565b428211610d1557604051631cde006f60e11b81526001600160a01b0385166004820152602401610b72565b60408051608081018252848152600060208083018281528385018781526001606086018181526001600160a01b038c16808752600486529588902096518755925190860155516002850155516003909301805460ff1916931515939093179092558251868152918201859052917f81df86a2b61400be4a11650390b55d3545cd72879f3de26700380ba01e64a5ab910160405180910390a250505050565b6000807f9016d09d72d40fdae2fd8ceac6b6234c7706214fd39c1cd1e609a0528c1993005b546001600160a01b031692915050565b610df0611553565b80600003610e1157604051631f2a200560e01b815260040160405180910390fd5b60055460408051918252602082018390527fa1c1e65db494623f3b8f692b15a9f0e3c8c9e13547023d126f1e271f5e19675e910160405180910390a1600555565b6001600160a01b038381166000908152600160205260409020548491163314610e9f57604051631bc9c48760e11b81523360048201526001600160a01b0382166024820152604401610b72565b610ea7611a0e565b610eaf6119dd565b60008581526002602052604090205460ff1615610ee25760405163d1d36dcd60e01b815260048101869052602401610b72565b6001600160a01b0384166000908152600460205260409020600381015460ff16610f2a576040516326d97ac960e11b81526001600160a01b0386166004820152602401610b72565b8060020154421115610f5a57604051631cde006f60e11b81526001600160a01b0386166004820152602401610b72565b82600003610f7b57604051631f2a200560e01b815260040160405180910390fd5b6001600160a01b038416610fa25760405163e6c4247b60e01b815260040160405180910390fd5b60008054604051636eb1769f60e11b81526001600160a01b0388811660048301523060248301529091169063dd62ed3e90604401602060405180830381865afa158015610ff3573d6000803e3d6000fd5b505050506040513d601f19601f8201168201806040525081019061101791906124a3565b9050838110156110445760405163054365bb60e31b81526004810182905260248101859052604401610b72565b6000878152600260205260408120805460ff19166001908117909155830180548692906110729084906124bc565b90915550506000546040516323b872dd60e01b81526001600160a01b038881166004830152878116602483015260448201879052909116906323b872dd906064016020604051808303816000875af11580156110d2573d6000803e3d6000fd5b505050506040513d601f19601f820116820180604052508101906110f691906124dd565b611113576040516312171d8360e31b815260040160405180910390fd5b846001600160a01b0316866001600160a01b0316887fda849593ab12eebd4796d9b30276de3bdd1288955bb2880193cc5fcbe5381dd08760405161115991815260200190565b60405180910390a4505061118c60017f9b779b17422d0df92223018b32b4d1fa46e071723d6817e2486d003becc55f0055565b5050505050565b336001600160a01b038216148015906111c657506001600160a01b03818116600090815260016020526040902054163314155b80156111eb57506111d5610db3565b6001600160a01b0316336001600160a01b031614155b1561120e57604051600162b7a61760e01b03198152336004820152602401610b72565b6001600160a01b038116600081815260046020526040808220600301805460ff19169055517fa903aa5fae0f87a3f95f82f45bc5d75b72eb9d9e03df19cbe46ffe07bc495f139190a250565b6000807f237e158222e3e6968b72b9db0d8043aacf074ad9f650f0d1606b4d82ee432c00610dd8565b61128b611553565b7f237e158222e3e6968b72b9db0d8043aacf074ad9f650f0d1606b4d82ee432c0080546001600160a01b0319166001600160a01b03831690811782556112cf610db3565b6001600160a01b03167f38d16b8cac22d99fc7c124b9cd0de2d3fa1faef420bfe791d8c362d765e2270060405160405180910390a35050565b6000611312611a7e565b905090565b6001600160a01b03868116600090815260016020526040902054879116331461136457604051631bc9c48760e11b81523360048201526001600160a01b0382166024820152604401610b72565b61136c6119dd565b8560000361138d57604051631f2a200560e01b815260040160405180910390fd5b6005548611156113be576005546040516307efdca960e21b8152610b72918891600401918252602082015260400190565b4285116113e957604051631cde006f60e11b81526001600160a01b0388166004820152602401610b72565b60005460405163d505accf60e01b81526001600160a01b038981166004830152306024830152604482018990526064820188905260ff8716608483015260a4820186905260c482018590529091169063d505accf9060e401600060405180830381600087803b15801561145b57600080fd5b505af115801561146f573d6000803e3d6000fd5b505050506040518060800160405280878152602001600081526020018681526020016001151581525060046000896001600160a01b03166001600160a01b0316815260200190815260200160002060008201518160000155602082015181600101556040820151816002015560608201518160030160006101000a81548160ff021916908315150217905550905050866001600160a01b03167f81df86a2b61400be4a11650390b55d3545cd72879f3de26700380ba01e64a5ab8787604051611542929190918252602082015260400190565b60405180910390a250505050505050565b3361155c610db3565b6001600160a01b0316146106b55760405163118cdaa760e01b8152336004820152602401610b72565b61158d611a88565b6000805160206126b2833981519152805460ff191681557f5db9ee0a495bf2e6ff9c91a7834c1ba4fdd244a5e8aa4e537bd38aeae4b073aa335b6040516001600160a01b03909116815260200160405180910390a150565b6000807ff0c57e16840df040f15088dc2f81fe391c3923bec73e23a9662efc9c229c6a005b92915050565b611618611ab8565b610b8481611add565b6106b5611ab8565b611631611ab8565b6106b5611b0f565b611641611ab8565b61087b8282611b17565b306001600160a01b037f00000000000000000000000000000000000000000000000000000000000000001614806116d257507f00000000000000000000000000000000000000000000000000000000000000006001600160a01b03166116c6600080516020612692833981519152546001600160a01b031690565b6001600160a01b031614155b156106b55760405163703e46dd60e11b815260040160405180910390fd5b610b84611553565b816001600160a01b03166352d1902d6040518163ffffffff1660e01b8152600401602060405180830381865afa925050508015611752575060408051601f3d908101601f1916820190925261174f918101906124a3565b60015b61177a57604051634c9c8ce360e01b81526001600160a01b0383166004820152602401610b72565b60008051602061269283398151915281146117ab57604051632a87526960e21b815260048101829052602401610b72565b6117b58383611b78565b505050565b306001600160a01b037f000000000000000000000000000000000000000000000000000000000000000016146106b55760405163703e46dd60e11b815260040160405180910390fd5b600061160a611810611a7e565b8360405161190160f01b8152600281019290925260228201526042902090565b6000806000806118408686611bce565b9250925092506118508282611c1b565b5090949350505050565b7f237e158222e3e6968b72b9db0d8043aacf074ad9f650f0d1606b4d82ee432c0080546001600160a01b031916815561087b82611cd4565b61189a6119dd565b6000805160206126b2833981519152805460ff191660011781557f62e78cea01bee320cd4e420270b5ea74000d11b0c9f74754ebdbfc544b05a258336115c7565b7fa16a46d94261c7517cc8ff89f61c0ce93598e3c849801011dee649a6a557d10280546060916000805160206126728339815191529161191a906124ff565b80601f0160208091040260200160405190810160405280929190818152602001828054611946906124ff565b80156119935780601f1061196857610100808354040283529160200191611993565b820191906000526020600020905b81548152906001019060200180831161197657829003601f168201915b505050505091505090565b7fa16a46d94261c7517cc8ff89f61c0ce93598e3c849801011dee649a6a557d10380546060916000805160206126728339815191529161191a906124ff565b6000805160206126b28339815191525460ff16156106b55760405163d93c066560e01b815260040160405180910390fd5b7f9b779b17422d0df92223018b32b4d1fa46e071723d6817e2486d003becc55f00805460011901611a5257604051633ee5aeb560e01b815260040160405180910390fd5b60029055565b60017f9b779b17422d0df92223018b32b4d1fa46e071723d6817e2486d003becc55f0055565b6000611312611d45565b6000805160206126b28339815191525460ff166106b557604051638dfc202b60e01b815260040160405180910390fd5b611ac0611db9565b6106b557604051631afcd79f60e31b815260040160405180910390fd5b611ae5611ab8565b6001600160a01b038116610b7b57604051631e4fbdf760e01b815260006004820152602401610b72565b611a58611ab8565b611b1f611ab8565b6000805160206126728339815191527fa16a46d94261c7517cc8ff89f61c0ce93598e3c849801011dee649a6a557d102611b598482612580565b5060038101611b688382612580565b5060008082556001909101555050565b611b8182611dd3565b6040516001600160a01b038316907fbc7cd75a20ee27fd9adebab32041f755214dbc6bffa90cc0225b39da2e5c2d3b90600090a2805115611bc6576117b58282611e38565b61087b611eae565b60008060008351604103611c085760208401516040850151606086015160001a611bfa88828585611ecd565b955095509550505050611c14565b50508151600091506002905b9250925092565b6000826003811115611c2f57611c2f61263f565b03611c38575050565b6001826003811115611c4c57611c4c61263f565b03611c6a5760405163f645eedf60e01b815260040160405180910390fd5b6002826003811115611c7e57611c7e61263f565b03611c9f5760405163fce698f760e01b815260048101829052602401610b72565b6003826003811115611cb357611cb361263f565b0361087b576040516335e2f38360e21b815260048101829052602401610b72565b7f9016d09d72d40fdae2fd8ceac6b6234c7706214fd39c1cd1e609a0528c19930080546001600160a01b031981166001600160a01b03848116918217845560405192169182907f8be0079c531659141344cd1fd0a4f28419497f9722a3daafe3b4186f6b6457e090600090a3505050565b60007f8b73c3c69bb8fe3d512ecc4cf759cc79239f7b179b0ffacaa9a75d522b39400f611d70611f9c565b611d78612006565b60408051602081019490945283019190915260608201524660808201523060a082015260c00160405160208183030381529060405280519060200120905090565b6000611dc36115e5565b54600160401b900460ff16919050565b806001600160a01b03163b600003611e0957604051634c9c8ce360e01b81526001600160a01b0382166004820152602401610b72565b60008051602061269283398151915280546001600160a01b0319166001600160a01b0392909216919091179055565b6060600080846001600160a01b031684604051611e559190612655565b600060405180830381855af49150503d8060008114611e90576040519150601f19603f3d011682016040523d82523d6000602084013e611e95565b606091505b5091509150611ea585838361204a565b95945050505050565b34156106b55760405163b398979f60e01b815260040160405180910390fd5b600080807f7fffffffffffffffffffffffffffffff5d576e7357a4501ddfe92f46681b20a0841115611f085750600091506003905082611f92565b604080516000808252602082018084528a905260ff891692820192909252606081018790526080810186905260019060a0016020604051602081039080840390855afa158015611f5c573d6000803e3d6000fd5b5050604051601f1901519150506001600160a01b038116611f8857506000925060019150829050611f92565b9250600091508190505b9450945094915050565b600060008051602061267283398151915281611fb66118db565b805190915015611fce57805160209091012092915050565b81548015611fdd579392505050565b7fc5d2460186f7233c927e7db2dcc703c0e500b653ca82273b7bfad8045d85a470935050505090565b60006000805160206126728339815191528161202061199e565b80519091501561203857805160209091012092915050565b60018201548015611fdd579392505050565b60608261205f5761205a826120a9565b6120a2565b815115801561207657506001600160a01b0384163b155b1561209f57604051639996b31560e01b81526001600160a01b0385166004820152602401610b72565b50805b9392505050565b8051156120b857805160208201fd5b60405163d6bda27560e01b815260040160405180910390fd5b80356001600160a01b03811681146120e857600080fd5b919050565b6000602082840312156120ff57600080fd5b6120a2826120d1565b60006020828403121561211a57600080fd5b5035919050565b6000806040838503121561213457600080fd5b61213d836120d1565b915061214b602084016120d1565b90509250929050565b634e487b7160e01b600052604160045260246000fd5b6000806040838503121561217d57600080fd5b612186836120d1565b9150602083013567ffffffffffffffff8111156121a257600080fd5b8301601f810185136121b357600080fd5b803567ffffffffffffffff8111156121cd576121cd612154565b604051601f8201601f19908116603f0116810167ffffffffffffffff811182821017156121fc576121fc612154565b60405281815282820160200187101561221457600080fd5b816020840160208301376000602083830101528093505050509250929050565b60005b8381101561224f578181015183820152602001612237565b50506000910152565b60008151808452612270816020860160208601612234565b601f01601f19169290920160200192915050565b6020815260006120a26020830184612258565b6000806000806000608086880312156122af57600080fd5b6122b8866120d1565b94506122c6602087016120d1565b935060408601359250606086013567ffffffffffffffff8111156122e957600080fd5b8601601f810188136122fa57600080fd5b803567ffffffffffffffff81111561231157600080fd5b88602082840101111561232357600080fd5b959894975092955050506020019190565b60ff60f81b8816815260e06020820152600061235360e0830189612258565b82810360408401526123658189612258565b606084018890526001600160a01b038716608085015260a0840186905283810360c08501528451808252602080870193509091019060005b818110156123bb57835183526020938401939092019160010161239d565b50909b9a5050505050505050505050565b6000806000606084860312156123e157600080fd5b6123ea846120d1565b95602085013595506040909401359392505050565b6000806000806080858703121561241557600080fd5b84359350612425602086016120d1565b9250612433604086016120d1565b9396929550929360600135925050565b60008060008060008060c0878903121561245c57600080fd5b612465876120d1565b95506020870135945060408701359350606087013560ff8116811461248957600080fd5b9598949750929560808101359460a0909101359350915050565b6000602082840312156124b557600080fd5b5051919050565b8082018082111561160a57634e487b7160e01b600052601160045260246000fd5b6000602082840312156124ef57600080fd5b815180151581146120a257600080fd5b600181811c9082168061251357607f821691505b60208210810361253357634e487b7160e01b600052602260045260246000fd5b50919050565b601f8211156117b557806000526020600020601f840160051c810160208510156125605750805b601f840160051c820191505b8181101561118c576000815560010161256c565b815167ffffffffffffffff81111561259a5761259a612154565b6125ae816125a884546124ff565b84612539565b6020601f8211600181146125e257600083156125ca5750848201515b600019600385901b1c1916600184901b17845561118c565b600084815260208120601f198516915b8281101561261257878501518255602094850194600190920191016125f2565b50848210156126305786840151600019600387901b60f8161c191681555b50505050600190811b01905550565b634e487b7160e01b600052602160045260246000fd5b60008251612667818460208701612234565b919091019291505056fea16a46d94261c7517cc8ff89f61c0ce93598e3c849801011dee649a6a557d100360894a13ba1a3210667c828492db98dca3e2076cc3735a920a3ca505d382bbccd5ed15c6e187e77e9aee88184c21f4f2182ab5827cb3b7e07fbedcd63f03300a2646970667358221220a2b20867a57f6dfc259ee7e9b73728648a9ffe4e8e0e6818226347e8266c370864736f6c634300081a0033",
  "linkReferences": {},
  "deployedLinkReferences": {}
}